{
  "_format": "hh-sol-artifact-1",
  "contractName": "Goals",
  "sourceName": "contracts/Goals.sol",
  "abi": [
    {
      "inputs": [
        {
          "internalType": "address",
          "name": "_goalsTokenAddr",
          "type": "address"
        }
      ],
      "stateMutability": "nonpayable",
      "type": "constructor"
    },
    {
      "inputs": [
        {
          "internalType": "uint256",
          "name": "_goalId",
          "type": "uint256"
        },
        {
          "internalType": "address",
          "name": "_participant",
          "type": "address"
        },
        {
          "internalType": "uint256",
          "name": "_number",
          "type": "uint256"
        },
        {
          "internalType": "uint256[]",
          "name": "_uriIndex",
          "type": "uint256[]"
        }
      ],
      "name": "autenticateFrequency",
      "outputs": [],
      "stateMutability": "nonpayable",
      "type": "function"
    },
    {
      "inputs": [
        {
          "internalType": "uint256",
          "name": "",
          "type": "uint256"
        },
        {
          "internalType": "address",
          "name": "",
          "type": "address"
        }
      ],
      "name": "bets",
      "outputs": [
        {
          "internalType": "uint256",
          "name": "",
          "type": "uint256"
        }
      ],
      "stateMutability": "view",
      "type": "function"
    },
    {
      "inputs": [
        {
          "internalType": "address",
          "name": "_newOwner",
          "type": "address"
        }
      ],
      "name": "changeOwner",
      "outputs": [],
      "stateMutability": "nonpayable",
      "type": "function"
    },
    {
      "inputs": [
        {
          "internalType": "uint256",
          "name": "_goalId",
          "type": "uint256"
        }
      ],
      "name": "completeGoal",
      "outputs": [],
      "stateMutability": "nonpayable",
      "type": "function"
    },
    {
      "inputs": [
        {
          "internalType": "string",
          "name": "_name",
          "type": "string"
        },
        {
          "internalType": "string",
          "name": "_description",
          "type": "string"
        },
        {
          "internalType": "string",
          "name": "_category",
          "type": "string"
        },
        {
          "internalType": "string",
          "name": "_frequency",
          "type": "string"
        },
        {
          "internalType": "uint256",
          "name": "_target",
          "type": "uint256"
        },
        {
          "internalType": "uint256",
          "name": "_minimumBet",
          "type": "uint256"
        },
        {
          "internalType": "uint256",
          "name": "_startDate",
          "type": "uint256"
        },
        {
          "internalType": "uint256",
          "name": "_endDate",
          "type": "uint256"
        },
        {
          "internalType": "bool",
          "name": "_isPublic",
          "type": "bool"
        },
        {
          "internalType": "uint256",
          "name": "_preFund",
          "type": "uint256"
        },
        {
          "internalType": "uint256",
          "name": "_maxParticipants",
          "type": "uint256"
        },
        {
          "internalType": "string[]",
          "name": "_URI",
          "type": "string[]"
        },
        {
          "internalType": "string",
          "name": "_typeTragetFreq",
          "type": "string"
        },
        {
          "internalType": "uint256",
          "name": "_quantity",
          "type": "uint256"
        },
        {
          "internalType": "uint256",
          "name": "_numFreq",
          "type": "uint256"
        }
      ],
      "name": "createGoal",
      "outputs": [],
      "stateMutability": "nonpayable",
      "type": "function"
    },
    {
      "inputs": [
        {
          "internalType": "uint256",
          "name": "_goalId",
          "type": "uint256"
        },
        {
          "internalType": "uint256",
          "name": "_bet",
          "type": "uint256"
        }
      ],
      "name": "enterGoal",
      "outputs": [],
      "stateMutability": "nonpayable",
      "type": "function"
    },
    {
      "inputs": [
        {
          "internalType": "uint256",
          "name": "_goalId",
          "type": "uint256"
        },
        {
          "internalType": "address",
          "name": "_participant",
          "type": "address"
        }
      ],
      "name": "getAutenticatedUri",
      "outputs": [
        {
          "internalType": "uint256[]",
          "name": "",
          "type": "uint256[]"
        }
      ],
      "stateMutability": "view",
      "type": "function"
    },
    {
      "inputs": [],
      "name": "getGoal",
      "outputs": [
        {
          "components": [
            {
              "internalType": "uint256",
              "name": "id",
              "type": "uint256"
            },
            {
              "internalType": "string",
              "name": "name",
              "type": "string"
            },
            {
              "internalType": "string",
              "name": "description",
              "type": "string"
            },
            {
              "internalType": "string",
              "name": "category",
              "type": "string"
            },
            {
              "internalType": "string",
              "name": "frequency",
              "type": "string"
            },
            {
              "internalType": "uint256",
              "name": "targetFreq",
              "type": "uint256"
            },
            {
              "internalType": "uint256",
              "name": "minimumBet",
              "type": "uint256"
            },
            {
              "internalType": "uint256",
              "name": "startDate",
              "type": "uint256"
            },
            {
              "internalType": "uint256",
              "name": "endDate",
              "type": "uint256"
            },
            {
              "internalType": "bool",
              "name": "isStarted",
              "type": "bool"
            },
            {
              "internalType": "bool",
              "name": "isCompleted",
              "type": "bool"
            },
            {
              "internalType": "bool",
              "name": "isPublic",
              "type": "bool"
            },
            {
              "internalType": "address",
              "name": "creator",
              "type": "address"
            },
            {
              "internalType": "uint256",
              "name": "totalBet",
              "type": "uint256"
            },
            {
              "internalType": "uint256",
              "name": "preFund",
              "type": "uint256"
            },
            {
              "internalType": "uint256",
              "name": "totalParticipants",
              "type": "uint256"
            },
            {
              "internalType": "uint256",
              "name": "maxParticipants",
              "type": "uint256"
            },
            {
              "internalType": "string[]",
              "name": "URI",
              "type": "string[]"
            },
            {
              "internalType": "string",
              "name": "typeTragetFreq",
              "type": "string"
            },
            {
              "internalType": "uint256",
              "name": "quantity",
              "type": "uint256"
            },
            {
              "internalType": "uint256",
              "name": "numFreq",
              "type": "uint256"
            }
          ],
          "internalType": "struct Goals.Goal[]",
          "name": "",
          "type": "tuple[]"
        }
      ],
      "stateMutability": "view",
      "type": "function"
    },
    {
      "inputs": [
        {
          "internalType": "uint256",
          "name": "_goalId",
          "type": "uint256"
        }
      ],
      "name": "getMyBets",
      "outputs": [
        {
          "internalType": "uint256",
          "name": "",
          "type": "uint256"
        }
      ],
      "stateMutability": "view",
      "type": "function"
    },
    {
      "inputs": [],
      "name": "getMyEnteredGoals",
      "outputs": [
        {
          "internalType": "uint256[]",
          "name": "",
          "type": "uint256[]"
        }
      ],
      "stateMutability": "view",
      "type": "function"
    },
    {
      "inputs": [],
      "name": "getMyGoals",
      "outputs": [
        {
          "internalType": "uint256[]",
          "name": "",
          "type": "uint256[]"
        }
      ],
      "stateMutability": "view",
      "type": "function"
    },
    {
      "inputs": [
        {
          "internalType": "uint256",
          "name": "_goalId",
          "type": "uint256"
        }
      ],
      "name": "getMyProgress",
      "outputs": [
        {
          "internalType": "uint256",
          "name": "",
          "type": "uint256"
        }
      ],
      "stateMutability": "view",
      "type": "function"
    },
    {
      "inputs": [
        {
          "internalType": "uint256",
          "name": "_goalId",
          "type": "uint256"
        }
      ],
      "name": "getParticipants",
      "outputs": [
        {
          "internalType": "address[]",
          "name": "",
          "type": "address[]"
        }
      ],
      "stateMutability": "view",
      "type": "function"
    },
    {
      "inputs": [
        {
          "internalType": "uint256",
          "name": "_goalId",
          "type": "uint256"
        },
        {
          "internalType": "address",
          "name": "_participant",
          "type": "address"
        }
      ],
      "name": "getParticipantsUri",
      "outputs": [
        {
          "internalType": "string[]",
          "name": "",
          "type": "string[]"
        }
      ],
      "stateMutability": "view",
      "type": "function"
    },
    {
      "inputs": [
        {
          "internalType": "uint256",
          "name": "",
          "type": "uint256"
        }
      ],
      "name": "goals",
      "outputs": [
        {
          "internalType": "uint256",
          "name": "id",
          "type": "uint256"
        },
        {
          "internalType": "string",
          "name": "name",
          "type": "string"
        },
        {
          "internalType": "string",
          "name": "description",
          "type": "string"
        },
        {
          "internalType": "string",
          "name": "category",
          "type": "string"
        },
        {
          "internalType": "string",
          "name": "frequency",
          "type": "string"
        },
        {
          "internalType": "uint256",
          "name": "targetFreq",
          "type": "uint256"
        },
        {
          "internalType": "uint256",
          "name": "minimumBet",
          "type": "uint256"
        },
        {
          "internalType": "uint256",
          "name": "startDate",
          "type": "uint256"
        },
        {
          "internalType": "uint256",
          "name": "endDate",
          "type": "uint256"
        },
        {
          "internalType": "bool",
          "name": "isStarted",
          "type": "bool"
        },
        {
          "internalType": "bool",
          "name": "isCompleted",
          "type": "bool"
        },
        {
          "internalType": "bool",
          "name": "isPublic",
          "type": "bool"
        },
        {
          "internalType": "address",
          "name": "creator",
          "type": "address"
        },
        {
          "internalType": "uint256",
          "name": "totalBet",
          "type": "uint256"
        },
        {
          "internalType": "uint256",
          "name": "preFund",
          "type": "uint256"
        },
        {
          "internalType": "uint256",
          "name": "totalParticipants",
          "type": "uint256"
        },
        {
          "internalType": "uint256",
          "name": "maxParticipants",
          "type": "uint256"
        },
        {
          "internalType": "string",
          "name": "typeTragetFreq",
          "type": "string"
        },
        {
          "internalType": "uint256",
          "name": "quantity",
          "type": "uint256"
        },
        {
          "internalType": "uint256",
          "name": "numFreq",
          "type": "uint256"
        }
      ],
      "stateMutability": "view",
      "type": "function"
    },
    {
      "inputs": [
        {
          "internalType": "uint256",
          "name": "",
          "type": "uint256"
        },
        {
          "internalType": "address",
          "name": "",
          "type": "address"
        }
      ],
      "name": "isParticipant",
      "outputs": [
        {
          "internalType": "bool",
          "name": "",
          "type": "bool"
        }
      ],
      "stateMutability": "view",
      "type": "function"
    },
    {
      "inputs": [
        {
          "internalType": "address",
          "name": "",
          "type": "address"
        },
        {
          "internalType": "uint256",
          "name": "",
          "type": "uint256"
        }
      ],
      "name": "myEnteredGoals",
      "outputs": [
        {
          "internalType": "uint256",
          "name": "",
          "type": "uint256"
        }
      ],
      "stateMutability": "view",
      "type": "function"
    },
    {
      "inputs": [
        {
          "internalType": "address",
          "name": "",
          "type": "address"
        },
        {
          "internalType": "uint256",
          "name": "",
          "type": "uint256"
        }
      ],
      "name": "myGoals",
      "outputs": [
        {
          "internalType": "uint256",
          "name": "",
          "type": "uint256"
        }
      ],
      "stateMutability": "view",
      "type": "function"
    },
    {
      "inputs": [],
      "name": "owner",
      "outputs": [
        {
          "internalType": "address",
          "name": "",
          "type": "address"
        }
      ],
      "stateMutability": "view",
      "type": "function"
    },
    {
      "inputs": [
        {
          "internalType": "uint256",
          "name": "",
          "type": "uint256"
        },
        {
          "internalType": "uint256",
          "name": "",
          "type": "uint256"
        }
      ],
      "name": "participants",
      "outputs": [
        {
          "internalType": "address",
          "name": "",
          "type": "address"
        }
      ],
      "stateMutability": "view",
      "type": "function"
    },
    {
      "inputs": [
        {
          "internalType": "uint256",
          "name": "",
          "type": "uint256"
        },
        {
          "internalType": "address",
          "name": "",
          "type": "address"
        }
      ],
      "name": "participantsAutenticatedFreq",
      "outputs": [
        {
          "internalType": "uint256",
          "name": "",
          "type": "uint256"
        }
      ],
      "stateMutability": "view",
      "type": "function"
    },
    {
      "inputs": [
        {
          "internalType": "uint256",
          "name": "",
          "type": "uint256"
        },
        {
          "internalType": "address",
          "name": "",
          "type": "address"
        }
      ],
      "name": "participantsFreq",
      "outputs": [
        {
          "internalType": "uint256",
          "name": "",
          "type": "uint256"
        }
      ],
      "stateMutability": "view",
      "type": "function"
    },
    {
      "inputs": [
        {
          "internalType": "uint256",
          "name": "",
          "type": "uint256"
        },
        {
          "internalType": "address",
          "name": "",
          "type": "address"
        },
        {
          "internalType": "uint256",
          "name": "",
          "type": "uint256"
        }
      ],
      "name": "participantsURI",
      "outputs": [
        {
          "internalType": "string",
          "name": "",
          "type": "string"
        }
      ],
      "stateMutability": "view",
      "type": "function"
    },
    {
      "inputs": [
        {
          "internalType": "uint256",
          "name": "_goalId",
          "type": "uint256"
        }
      ],
      "name": "startGoal",
      "outputs": [],
      "stateMutability": "nonpayable",
      "type": "function"
    },
    {
      "inputs": [],
      "name": "token",
      "outputs": [
        {
          "internalType": "contract GoalsToken",
          "name": "",
          "type": "address"
        }
      ],
      "stateMutability": "view",
      "type": "function"
    },
    {
      "inputs": [
        {
          "internalType": "uint256",
          "name": "_goalId",
          "type": "uint256"
        },
        {
          "internalType": "string",
          "name": "_imgaeURI",
          "type": "string"
        }
      ],
      "name": "updateFrequency",
      "outputs": [],
      "stateMutability": "nonpayable",
      "type": "function"
    },
    {
      "inputs": [
        {
          "internalType": "uint256",
          "name": "",
          "type": "uint256"
        },
        {
          "internalType": "address",
          "name": "",
          "type": "address"
        },
        {
          "internalType": "uint256",
          "name": "",
          "type": "uint256"
        }
      ],
      "name": "validatedURI",
      "outputs": [
        {
          "internalType": "uint256",
          "name": "",
          "type": "uint256"
        }
      ],
      "stateMutability": "view",
      "type": "function"
    }
  ],
  "bytecode": "0x60803461007c57601f61292438819003918201601f19168301916001600160401b038311848410176100815780849260209460405283398101031261007c57516001600160a01b0381169081900361007c5760018060a01b0319908160015416176001553390600054161760005560405161288c90816100988239f35b600080fd5b634e487b7160e01b600052604160045260246000fdfe610100604052600436101561001357600080fd5b60003560e01c80630409162014611ea457806309c935c014611b9257806327130b8d14611ae657806347368cf114611a5b57806347c0f95414611a135780634fe64436146119b557806357859a281461182d57806357a0225d146117e85780635911fc341461177c57806361449ca2146115aa57806371e9abab14611560578063758d9b891461151357806376e20e53146114b557806381fb1fb41461146b57806386d6b40f146114045780638da5cb5b146113db5780638e03adf314610e765780638e9e380e14610e1e578063a6f9dae114610d9e578063b501f4c8146106bb578063b97a7d2414610394578063c1e3bd3e146102dc578063d7a755ea14610264578063e594642c1461021c578063f644b3bb146101d4578063f78d7454146101745763fc0c546a1461014657600080fd5b3461016f57600036600319011261016f576001546040516001600160a01b039091168152602090f35b600080fd5b3461016f57604036600319011261016f5761018d61214f565b600435600052600760205260406000209060018060a01b03166000526020526101d06101bc6040600020612801565b604051918291602083526020830190612429565b0390f35b3461016f57604036600319011261016f576101ed61214f565b600435600052600460205260406000209060018060a01b03166000526020526020604060002054604051908152f35b3461016f57604036600319011261016f5761023561214f565b600435600052600860205260406000209060018060a01b03166000526020526020604060002054604051908152f35b3461016f57600036600319011261016f57336000526020600b6020526040600020906040519081602084549182815201936000526020600020916000905b8282106102c5576101d0856102b981890382612197565b604051918291826121e5565b8354865294850194600193840193909101906102a2565b3461016f5760208060031936011261016f5760043560005260038152604060002060405190818382549182815201908192600052846000209060005b8682821061037757868661032e82880383612197565b604051928392818401908285525180915260408401929160005b82811061035757505050500390f35b83516001600160a01b031685528695509381019392810192600101610348565b83546001600160a01b031685529093019260019283019201610318565b3461016f57600036600319011261016f57600280546103b2816121b8565b916103c06040519384612197565b818352602091828401809260026000527f405787fa12a823e0f2b7631cc41b3ba8828b3321ca811111fa75cd3aa3bb5ace906000925b84841061058157604080518881528951818a01819052600092600582901b83018101918a918c9085015b82871061042d5785850386f35b909192938280600192603f1989820301855287519061055b6105476104a561049261047f61046d6102a0885188528989015190808b8a01528801906123e9565b604088015187820360408901526123e9565b60608088015190878303908801526123e9565b60808087015190868303908701526123e9565b60a0808601519085015260c0808601519085015260e085015160e08501526101008086015190850152610120808601511515908501526101408086015115159085015261016080860151151590850152610180888060a01b038187015116908501526101a080860151908501526101c080860151908501526101e080860151908501526102008086015190850152610220808601519085830390860152612429565b6102408085015190848303908501526123e9565b916102608082015190830152610280809101519101529601920196019592919092610420565b60128760019260409a999a516105968161217b565b865481526105a5858801612344565b838201526105b4868801612344565b60408201526105c560038801612344565b60608201526105d660048801612344565b6080820152600587015460a0820152600687015460c0820152600787015460e08201526008808801546101008301526009880154809160ff92839182821615156101208701521c16151561014084015260109181831c161515610160840152868060a01b039060181c16610180830152600a8801546101a0830152600b8801546101c0830152600c8801546101e0830152600d88015461020083015261067e600e8901612801565b610220830152610690600f8901612344565b61024083015287015461026082015260118701546102808201528152019301930192919695966103f6565b3461016f576101e036600319011261016f576004356001600160401b03811161016f576106ec903690600401612221565b6024356001600160401b03811161016f5761070b903690600401612221565b6044356001600160401b03811161016f5761072a903690600401612221565b6064356001600160401b03811161016f57610749903690600401612221565b61010435801515810361016f576001600160401b03610164351161016f573660236101643501121561016f5761078561016435600401356121b8565b916107936040519384612197565b6101643560040135835260208301366024610164356004013560051b6101643501011161016f5760246101643501905b6024610164356004013560051b6101643501018210610d6c575050610184356001600160401b03811161016f576107fe903690600401612221565b9360e43560c4351015610d1c5760843515610cd7576101443515610c8257835115610c45576001546040516370a0823160e01b815233600482015290602090829060249082906001600160a01b03165afa8015610b4357600090610c11575b61086d91506101243511156125b8565b33600052600a602052610887604060002060025490612576565b60025495604051976108988961217b565b878952602089015260408801526060870152608086015260843560a086015260a43560c086015260c43560e086015260e43561010086015260006101208601526000610140860152151561016085015233610180850152610124356101a0850152610124356101c085015260006101e0850152610144356102008501526102208401526102408301526101a4356102608301526101c435610280830152600160401b811015610be55780600161095192016002556122cf565b919091610bfb578051825561096d6020820151600184016126cf565b61097e6040820151600284016126cf565b61098f6060820151600384016126cf565b6109a06080820151600484016126cf565b60a0810151600583015560c0810151600683015560e081015160078301556101008101516008830155600982016101208201511515815490610140840151151560081b61ff0061016086015115159362ff00006301000000600160b81b0361018089015160181b169560101b169360ff62010000600160b81b03199116169068ffffffffffffffffff60b81b1617911617171790556101a0810151600a8301556101c0810151600b8301556101e0810151600c830155610200810151600d830155610220810151805190600160401b8211610be557600e84015482600e860155808310610b6c575b50602001600e840160005260206000206000915b838310610b4f5785601161028087610abc610240820151600f86016126cf565b610260810151601085015501519101556001546040516323b872dd60e01b81523360048201523060248201526101243560448201529060209082906001600160a01b031681600081606481015b03925af18015610b4357610b1957005b610b3a9060203d602011610b3c575b610b328183612197565b810190612645565b005b503d610b28565b6040513d6000823e3d90fd5b6001602082610b60839451866126cf565b01920192019190610a9c565b600e85016000526020600020908382015b8183018110610b8d575050610a88565b80610b9a6001925461230a565b80610ba7575b5001610b7d565b601f908181118414610bc0575050600081555b88610ba0565b610bdc60009284845260208420920160051c82018583016126b8565b81835555610bba565b634e487b7160e01b600052604160045260246000fd5b634e487b7160e01b600052600060045260246000fd5b506020813d602011610c3d575b81610c2b60209383612197565b8101031261016f5761086d905161085d565b3d9150610c1e565b60405162461bcd60e51b8152602060048201526015602482015274555249206d757374206e6f7420626520656d70747960581b6044820152606490fd5b60405162461bcd60e51b815260206004820152602760248201527f4d6178207061727469636970616e7473206d75737420626520677265617465726044820152660207468616e20360cc1b6064820152608490fd5b60405162461bcd60e51b815260206004820152601d60248201527f546172676574206d7573742062652067726561746572207468616e20300000006044820152606490fd5b60405162461bcd60e51b815260206004820152602260248201527f53746172742064617465206d757374206265206265666f726520656e64206461604482015261746560f01b6064820152608490fd5b81356001600160401b03811161016f57602091610d93839260243691610164350101612221565b8152019101906107c3565b3461016f57602036600319011261016f57610db7612165565b600054906001600160a01b03908183163303610de1576001600160a01b0319909216911617600055005b60405162461bcd60e51b81526020600482015260156024820152742cb7ba9030b932903737ba103a34329037bbb732b960591b6044820152606490fd5b3461016f57604036600319011261016f57610e37612165565b6001600160a01b03166000908152600b602052604090208054602435919082101561016f57602091610e68916122a1565b90546040519160031b1c8152f35b3461016f57602036600319011261016f57610eb0610e956004356122cf565b50600901543360189190911c6001600160a01b031614612486565b610ecf60ff6009610ec26004356122cf565b50015460081c16156124de565b6009610edc6004356122cf565b5001805461ff0019166101001790556005610ef86004356122cf565b500154605581029080820460551481151715610fda57600c610f1b6004356122cf565b50015490600092600090600080916000905b868210611140575050610f5c9291610f57610f5792600a610f4f6004356122cf565b5001546127f4565b6127f4565b916001918360011c948015600014610ff05750506001546000546001600160a01b0391821695911693600119169250808304600214901517159050610fda5760405163a9059cbb60e01b81526001600160a01b03929092166004830152602482015290602090829060449082906000905af18015610b4357610b1957005b634e487b7160e01b600052601160045260246000fd5b610ffe9192939450856127d4565b9060005b83811061104f5750506001546000805460405163a9059cbb60e01b81526001600160a01b039182166004820152602481019790975260209550869450909116915082908160448101610b09565b84906004356000526006602052836040600020600390816020526110778460406000206122a1565b60018060a01b03915490841b1c1660005260205284604060002054146110a0575b505001611002565b61110893509060209160018060a01b03895416906004356000528084526110cb8560406000206122a1565b905460405163a9059cbb60e01b81526001600160a01b039290931b1c16600482015260248101929092529093849190829060009082906044820190565b03925af1918215610b43578692611121575b8490611098565b6111399060203d602011610b3c57610b328183612197565b508761111a565b90966004356000526008602052604060002060036020526111658960406000206122a1565b60018060a01b0391549060031b1c16600052602052604060002054868110156000146112865750600181018111610fda57600161124b9101976004356000526004602052604060002060036020526111c18260406000206122a1565b60018060a01b0391549060031b1c1660005260205260206111e860406000205480986125ab565b9660018060a01b03600154166004356000526003835261120c8460406000206122a1565b905460405163a9059cbb60e01b815260039290921b1c6001600160a01b0316600482015260248101929092529093849190829060009082906044820190565b03925af1918215610b4357600192611267575b505b0190610f2d565b61127f9060203d602011610b3c57610b328183612197565b508961125e565b909781606484041115806113d2575b156113455761130d91506004356000526004602052604060002060036020526112c28260406000206122a1565b60018060a01b0391549060031b1c1660005260205260206112e960406000205480966125ab565b9460018060a01b03600154166004356000526003835261120c8460406000206122a1565b03925af1918215610b4357600192611326575b50611260565b61133e9060203d602011610b3c57610b328183612197565b5089611320565b6004356000526004602052604060002060036020526113688260406000206122a1565b60018060a01b0391549060031b1c16600052602052604060002054918281810204811483151715610fda576113ae6113a78960209361130d96026127d4565b80976125ab565b9560018060a01b03600154166004356000526003835261120c8460406000206122a1565b50868210611295565b3461016f57600036600319011261016f576000546040516001600160a01b039091168152602090f35b3461016f5761141236612277565b91600052600760205260406000209060018060a01b0316600052602052604060002090815481101561016f57611447916122a1565b610bfb576114576101d091612344565b6040519182916020835260208301906123e9565b3461016f57611479366121cf565b9060005260036020526040600020805482101561016f5760209161149c916122a1565b905460405160039290921b1c6001600160a01b03168152f35b3461016f5760208060031936011261016f57600435806000526005825260406000203360005282526114f3600160ff6040600020541615151461265d565b600052600481526040600020336000528152604060002054604051908152f35b3461016f57604036600319011261016f5761152c61214f565b600435600052600560205260406000209060018060a01b0316600052602052602060ff604060002054166040519015158152f35b3461016f57604036600319011261016f57611579612165565b6001600160a01b03166000908152600a602052604090208054602435919082101561016f57602091610e68916122a1565b3461016f57602036600319011261016f5760043560025481101561016f576115d1906122cf565b508054906115e160018201612344565b60a0526115f060028201612344565b60e0526115ff60038201612344565b61160b60048301612344565b90600583015491600684015460078501546008860154600987015490600a88015492600b89015494600c8a015496600d8b015498600f8c0161164c90612344565b9b6010810154608052601101549c60405160c0526102809060c051528060c0516020015260c0510160a05190611681916123e9565b60c051810360c0516040015260e0519061169a916123e9565b60c051810360c051606001526116af916123e9565b60c051810360c051608001526116c4916123e9565b9860c05160a0015260c05160c0015260c05160e0015260c051610100015260ff8116151560c05161012001528060081c60ff16151560c05161014001528060101c60ff16151560c0516101600152600160a01b600190039060181c1660c051610180015260c0516101a0015260c0516101c0015260c0516101e0015260c051610200015260c051810360c051610220015261175e916123e9565b9060805160c051610240015260c051610260015260c051900360c051f35b3461016f57600036600319011261016f57336000526020600a6020526040600020906040519081602084549182815201936000526020600020916000905b8282106117d1576101d0856102b981890382612197565b8354865294850194600193840193909101906117ba565b3461016f576117f636612277565b91600052600960205260406000209060018060a01b03166000526020526040600020805482101561016f57602091610e68916122a1565b3461016f57604036600319011261016f576004356024356001600160401b03811161016f57611860903690600401612221565b908060005260209160058352604060002033600052835261188d600160ff6040600020541615151461265d565b61189d60ff6009610ec2856122cf565b6118bb600160ff60096118af866122cf565b5001541615151461252a565b8160005260068352604060002033600052835260406000205460056118df846122cf565b5001541115611955578160005260078352604060002033600052835260406000208054600160401b811015610be55761191d916001820181556122a1565b919091610bfb5761192d916126cf565b600052600681526040600020903360005252604060002080549060018201809211610fda5755005b60405162461bcd60e51b815260048101849052603260248201527f596f752068617665207265616368656420746865206d6178696d756d206e756d604482015271626572206f66206672657175656e6369657360701b6064820152608490fd5b3461016f5760208060031936011261016f57600435806000526005825260406000203360005282526119f3600160ff6040600020541615151461265d565b600052600881526040600020336000528152604060002054604051908152f35b3461016f57604036600319011261016f57611a2c61214f565b600435600052600660205260406000209060018060a01b03166000526020526020604060002054604051908152f35b3461016f57604036600319011261016f57611a7461214f565b600435600052602090600960205260406000209060018060a01b03166000526020526040600020906040519081602084549182815201936000526020600020916000905b828210611acf576101d0856102b981890382612197565b835486529485019460019384019390910190611ab8565b3461016f57602036600319011261016f57600435611b06610e95826122cf565b611b2060ff6009611b16846122cf565b50015416156125f9565b600c611b2b826122cf565b50015415611b4d57611b3e6009916122cf565b5001805460ff19166001179055005b60405162461bcd60e51b815260206004820152601c60248201527f4e6f207061727469636970616e747320696e207468697320676f616c000000006044820152606490fd5b3461016f57611ba0366121cf565b906006611bac826122cf565b5001548210611e53576001546040516370a0823160e01b81523360048201526001600160a01b039360209290919083908290602490829089165afa8015610b43578290600090611e22575b611c03925010156125b8565b600c611c0e846122cf565b500154600d611c1c856122cf565b5001541115611dee57611c3560ff6009610ec2866122cf565b8260005260058252604060002033600052825260ff60406000205416611d9e57611c6560ff6009611b16866122cf565b8260005260048252604060002033600052825280604060002055600a611c8a846122cf565b5001611c978282546125ab565b9055600c611ca4846122cf565b500180549060018201809211610fda57558260005260038252604060002090815490600160401b821015610be557600095611ce98386956001611d5a960181556122a1565b81549060031b908333831b921b19161790558587526005845260408720338852845260408720600160ff1982541617905560015416906040519687809481936323b872dd60e01b835230336004850160409194939294606082019560018060a01b0380921683521660208201520152565b03925af1908115610b4357610b3a93600b92611d81575b5033600052526040600020612576565b611d9790823d8411610b3c57610b328183612197565b5084611d71565b60405162461bcd60e51b815260048101839052602260248201527f596f75206861766520616c726561647920656e7465726564207468697320676f604482015261185b60f21b6064820152608490fd5b60405162461bcd60e51b815260048101839052600c60248201526b11dbd85b081a5cc8199d5b1b60a21b6044820152606490fd5b50508281813d8311611e4c575b611e398183612197565b8101031261016f5781611c039151611bf7565b503d611e2f565b60405162461bcd60e51b8152602060048201526024808201527f426574206d7573742062652067726561746572207468616e206d696e696d756d6044820152630818995d60e21b6064820152608490fd5b3461016f57608036600319011261016f57600435611ec061214f565b90606435906001600160401b03821161016f573660238301121561016f5781600401356024611eee826121b8565b90611efc6040519283612197565b828252602094858301602460059560051b8301019136831161016f576024889101915b83831061213f5750505050611f33846122cf565b509160018060a01b038060098095015460181c1633148015612132575b611f5990612486565b85600052600587526040600020971696876000528652600192600160ff604060002054161515036120d757611f9460ff6009610ec2896122cf565b611fa6600160ff60096118af8a6122cf565b856000526008875260406000208860005287526040600020546005611fca886122cf565b500154111561206c576000845b612006575b8888886000526008815260406000209160005252604060002061200260443582546125ab565b9055005b8251811015612067578660005281885260406000208960005288526040600020835182101561205257816120488796959493928b88948b1b8701015190612576565b0190919293611fd7565b84634e487b7160e01b60005260326004526000fd5b611fdc565b60405162461bcd60e51b815260048101889052603e60248201527f54686973207061727469636970616e742068617320726561636865642074686560448201527f206d6178696d756d206e756d626572206f66206672657175656e6369657300006064820152608490fd5b60405162461bcd60e51b815260048101889052602d60248201527f5468652061646472657373206973206e6f742061207061727469636970616e7460448201526c081bd9881d1a1a5cc819dbd85b609a1b6064820152608490fd5b5060005481163314611f50565b8235815291810191889101611f1f565b602435906001600160a01b038216820361016f57565b600435906001600160a01b038216820361016f57565b6102a081019081106001600160401b03821117610be557604052565b90601f801991011681019081106001600160401b03821117610be557604052565b6001600160401b038111610be55760051b60200190565b604090600319011261016f576004359060243590565b602090602060408183019282815285518094520193019160005b82811061220d575050505090565b8351855293810193928101926001016121ff565b81601f8201121561016f578035906001600160401b038211610be55760405192612255601f8401601f191660200185612197565b8284526020838301011161016f57816000926020809301838601378301015290565b606090600319011261016f57600435906024356001600160a01b038116810361016f579060443590565b80548210156122b95760005260206000200190600090565b634e487b7160e01b600052603260045260246000fd5b6002548110156122b9576012906002600052027f405787fa12a823e0f2b7631cc41b3ba8828b3321ca811111fa75cd3aa3bb5ace0190600090565b90600182811c9216801561233a575b602083101461232457565b634e487b7160e01b600052602260045260246000fd5b91607f1691612319565b906040519182600082546123578161230a565b908184526020946001916001811690816000146123c75750600114612388575b50505061238692500383612197565b565b600090815285812095935091905b8183106123af5750506123869350820101388080612377565b85548884018501529485019487945091830191612396565b9250505061238694925060ff191682840152151560051b820101388080612377565b919082519283825260005b848110612415575050826000602080949584010152601f8019910116010190565b6020818301810151848301820152016123f4565b90808251908181526020809101926020808460051b8301019501936000915b8483106124585750505050505090565b9091929394958480612476600193601f198682030187528a516123e9565b9801930193019194939290612448565b1561248d57565b60405162461bcd60e51b8152602060048201526024808201527f596f7520617265206e6f74207468652063726561746f72206f6620746869732060448201526319dbd85b60e21b6064820152608490fd5b156124e557565b60405162461bcd60e51b815260206004820152601f60248201527f476f616c2068617320616c7265616479206265656e20636f6d706c65746564006044820152606490fd5b1561253157565b60405162461bcd60e51b815260206004820152601860248201527f476f616c20686173206e6f7420737461727465642079657400000000000000006044820152606490fd5b8054600160401b811015610be557612593916001820181556122a1565b819291549060031b91821b91600019901b1916179055565b91908201809211610fda57565b156125bf57565b60405162461bcd60e51b8152602060048201526012602482015271496e73756666696369656e742066756e647360701b6044820152606490fd5b1561260057565b60405162461bcd60e51b815260206004820152601860248201527f476f616c2068617320616c7265616479207374617274656400000000000000006044820152606490fd5b9081602091031261016f5751801515810361016f5790565b1561266457565b60405162461bcd60e51b815260206004820152602660248201527f596f7520617265206e6f742061207061727469636970616e74206f66207468696044820152651cc819dbd85b60d21b6064820152608490fd5b8181106126c3575050565b600081556001016126b8565b91909182516001600160401b038111610be5576126ec825461230a565b601f8111612797575b50602080601f8311600114612732575081929394600092612727575b50508160011b916000199060031b1c1916179055565b015190503880612711565b90601f19831695846000526020600020926000905b88821061277f57505083600195969710612766575b505050811b019055565b015160001960f88460031b161c1916905538808061275c565b80600185968294968601518155019501930190612747565b6127c490836000526020600020601f840160051c810191602085106127ca575b601f0160051c01906126b8565b386126f5565b90915081906127b7565b81156127de570490565b634e487b7160e01b600052601260045260246000fd5b91908203918211610fda57565b90815461280d816121b8565b9261281b6040519485612197565b818452600090815260208082208186015b84841061283a575050505050565b600183819261284885612344565b81520192019301929061282c56fea26469706673582212206d1d79ab17ac2131b7ee7ed01d87a731766faee9a28bf59dd5a55f59a6c4c18c64736f6c63430008180033",
  "linkReferences": {},
  "deployedLinkReferences": {}
}