{
  "contracts/Goals.sol": {
    "Goals": {
      "abi": [
        {
          "inputs": [
            {
              "internalType": "address",
              "name": "_goalsTokenAddr",
              "type": "address"
            }
          ],
          "stateMutability": "nonpayable",
          "type": "constructor"
        },
        {
          "inputs": [
            {
              "internalType": "uint256",
              "name": "_goalId",
              "type": "uint256"
            },
            {
              "internalType": "address",
              "name": "_participant",
              "type": "address"
            },
            {
              "internalType": "uint256",
              "name": "_number",
              "type": "uint256"
            },
            {
              "internalType": "uint256[]",
              "name": "_uriIndex",
              "type": "uint256[]"
            }
          ],
          "name": "autenticateFrequency",
          "outputs": [],
          "stateMutability": "nonpayable",
          "type": "function"
        },
        {
          "inputs": [
            {
              "internalType": "uint256",
              "name": "",
              "type": "uint256"
            },
            {
              "internalType": "address",
              "name": "",
              "type": "address"
            }
          ],
          "name": "bets",
          "outputs": [
            {
              "internalType": "uint256",
              "name": "",
              "type": "uint256"
            }
          ],
          "stateMutability": "view",
          "type": "function"
        },
        {
          "inputs": [
            {
              "internalType": "address",
              "name": "_newOwner",
              "type": "address"
            }
          ],
          "name": "changeOwner",
          "outputs": [],
          "stateMutability": "nonpayable",
          "type": "function"
        },
        {
          "inputs": [
            {
              "internalType": "uint256",
              "name": "_goalId",
              "type": "uint256"
            }
          ],
          "name": "completeGoal",
          "outputs": [],
          "stateMutability": "nonpayable",
          "type": "function"
        },
        {
          "inputs": [
            {
              "internalType": "string",
              "name": "_name",
              "type": "string"
            },
            {
              "internalType": "string",
              "name": "_description",
              "type": "string"
            },
            {
              "internalType": "string",
              "name": "_category",
              "type": "string"
            },
            {
              "internalType": "string",
              "name": "_frequency",
              "type": "string"
            },
            {
              "internalType": "uint256",
              "name": "_target",
              "type": "uint256"
            },
            {
              "internalType": "uint256",
              "name": "_minimumBet",
              "type": "uint256"
            },
            {
              "internalType": "uint256",
              "name": "_startDate",
              "type": "uint256"
            },
            {
              "internalType": "uint256",
              "name": "_endDate",
              "type": "uint256"
            },
            {
              "internalType": "bool",
              "name": "_isPublic",
              "type": "bool"
            },
            {
              "internalType": "uint256",
              "name": "_preFund",
              "type": "uint256"
            },
            {
              "internalType": "uint256",
              "name": "_maxParticipants",
              "type": "uint256"
            },
            {
              "internalType": "string[]",
              "name": "_URI",
              "type": "string[]"
            },
            {
              "internalType": "string",
              "name": "_typeTragetFreq",
              "type": "string"
            },
            {
              "internalType": "uint256",
              "name": "_quantity",
              "type": "uint256"
            },
            {
              "internalType": "uint256",
              "name": "_numFreq",
              "type": "uint256"
            }
          ],
          "name": "createGoal",
          "outputs": [],
          "stateMutability": "nonpayable",
          "type": "function"
        },
        {
          "inputs": [
            {
              "internalType": "uint256",
              "name": "_goalId",
              "type": "uint256"
            },
            {
              "internalType": "uint256",
              "name": "_bet",
              "type": "uint256"
            }
          ],
          "name": "enterGoal",
          "outputs": [],
          "stateMutability": "nonpayable",
          "type": "function"
        },
        {
          "inputs": [
            {
              "internalType": "uint256",
              "name": "_goalId",
              "type": "uint256"
            },
            {
              "internalType": "address",
              "name": "_participant",
              "type": "address"
            }
          ],
          "name": "getAutenticatedUri",
          "outputs": [
            {
              "internalType": "uint256[]",
              "name": "",
              "type": "uint256[]"
            }
          ],
          "stateMutability": "view",
          "type": "function"
        },
        {
          "inputs": [],
          "name": "getGoal",
          "outputs": [
            {
              "components": [
                {
                  "internalType": "uint256",
                  "name": "id",
                  "type": "uint256"
                },
                {
                  "internalType": "string",
                  "name": "name",
                  "type": "string"
                },
                {
                  "internalType": "string",
                  "name": "description",
                  "type": "string"
                },
                {
                  "internalType": "string",
                  "name": "category",
                  "type": "string"
                },
                {
                  "internalType": "string",
                  "name": "frequency",
                  "type": "string"
                },
                {
                  "internalType": "uint256",
                  "name": "targetFreq",
                  "type": "uint256"
                },
                {
                  "internalType": "uint256",
                  "name": "minimumBet",
                  "type": "uint256"
                },
                {
                  "internalType": "uint256",
                  "name": "startDate",
                  "type": "uint256"
                },
                {
                  "internalType": "uint256",
                  "name": "endDate",
                  "type": "uint256"
                },
                {
                  "internalType": "bool",
                  "name": "isStarted",
                  "type": "bool"
                },
                {
                  "internalType": "bool",
                  "name": "isCompleted",
                  "type": "bool"
                },
                {
                  "internalType": "bool",
                  "name": "isPublic",
                  "type": "bool"
                },
                {
                  "internalType": "address",
                  "name": "creator",
                  "type": "address"
                },
                {
                  "internalType": "uint256",
                  "name": "totalBet",
                  "type": "uint256"
                },
                {
                  "internalType": "uint256",
                  "name": "preFund",
                  "type": "uint256"
                },
                {
                  "internalType": "uint256",
                  "name": "totalParticipants",
                  "type": "uint256"
                },
                {
                  "internalType": "uint256",
                  "name": "maxParticipants",
                  "type": "uint256"
                },
                {
                  "internalType": "string[]",
                  "name": "URI",
                  "type": "string[]"
                },
                {
                  "internalType": "string",
                  "name": "typeTragetFreq",
                  "type": "string"
                },
                {
                  "internalType": "uint256",
                  "name": "quantity",
                  "type": "uint256"
                },
                {
                  "internalType": "uint256",
                  "name": "numFreq",
                  "type": "uint256"
                }
              ],
              "internalType": "struct Goals.Goal[]",
              "name": "",
              "type": "tuple[]"
            }
          ],
          "stateMutability": "view",
          "type": "function"
        },
        {
          "inputs": [
            {
              "internalType": "uint256",
              "name": "_goalId",
              "type": "uint256"
            }
          ],
          "name": "getMyBets",
          "outputs": [
            {
              "internalType": "uint256",
              "name": "",
              "type": "uint256"
            }
          ],
          "stateMutability": "view",
          "type": "function"
        },
        {
          "inputs": [],
          "name": "getMyEnteredGoals",
          "outputs": [
            {
              "internalType": "uint256[]",
              "name": "",
              "type": "uint256[]"
            }
          ],
          "stateMutability": "view",
          "type": "function"
        },
        {
          "inputs": [],
          "name": "getMyGoals",
          "outputs": [
            {
              "internalType": "uint256[]",
              "name": "",
              "type": "uint256[]"
            }
          ],
          "stateMutability": "view",
          "type": "function"
        },
        {
          "inputs": [
            {
              "internalType": "uint256",
              "name": "_goalId",
              "type": "uint256"
            }
          ],
          "name": "getMyProgress",
          "outputs": [
            {
              "internalType": "uint256",
              "name": "",
              "type": "uint256"
            }
          ],
          "stateMutability": "view",
          "type": "function"
        },
        {
          "inputs": [
            {
              "internalType": "uint256",
              "name": "_goalId",
              "type": "uint256"
            }
          ],
          "name": "getParticipants",
          "outputs": [
            {
              "internalType": "address[]",
              "name": "",
              "type": "address[]"
            }
          ],
          "stateMutability": "view",
          "type": "function"
        },
        {
          "inputs": [
            {
              "internalType": "uint256",
              "name": "_goalId",
              "type": "uint256"
            },
            {
              "internalType": "address",
              "name": "_participant",
              "type": "address"
            }
          ],
          "name": "getParticipantsUri",
          "outputs": [
            {
              "internalType": "string[]",
              "name": "",
              "type": "string[]"
            }
          ],
          "stateMutability": "view",
          "type": "function"
        },
        {
          "inputs": [
            {
              "internalType": "uint256",
              "name": "",
              "type": "uint256"
            }
          ],
          "name": "goals",
          "outputs": [
            {
              "internalType": "uint256",
              "name": "id",
              "type": "uint256"
            },
            {
              "internalType": "string",
              "name": "name",
              "type": "string"
            },
            {
              "internalType": "string",
              "name": "description",
              "type": "string"
            },
            {
              "internalType": "string",
              "name": "category",
              "type": "string"
            },
            {
              "internalType": "string",
              "name": "frequency",
              "type": "string"
            },
            {
              "internalType": "uint256",
              "name": "targetFreq",
              "type": "uint256"
            },
            {
              "internalType": "uint256",
              "name": "minimumBet",
              "type": "uint256"
            },
            {
              "internalType": "uint256",
              "name": "startDate",
              "type": "uint256"
            },
            {
              "internalType": "uint256",
              "name": "endDate",
              "type": "uint256"
            },
            {
              "internalType": "bool",
              "name": "isStarted",
              "type": "bool"
            },
            {
              "internalType": "bool",
              "name": "isCompleted",
              "type": "bool"
            },
            {
              "internalType": "bool",
              "name": "isPublic",
              "type": "bool"
            },
            {
              "internalType": "address",
              "name": "creator",
              "type": "address"
            },
            {
              "internalType": "uint256",
              "name": "totalBet",
              "type": "uint256"
            },
            {
              "internalType": "uint256",
              "name": "preFund",
              "type": "uint256"
            },
            {
              "internalType": "uint256",
              "name": "totalParticipants",
              "type": "uint256"
            },
            {
              "internalType": "uint256",
              "name": "maxParticipants",
              "type": "uint256"
            },
            {
              "internalType": "string",
              "name": "typeTragetFreq",
              "type": "string"
            },
            {
              "internalType": "uint256",
              "name": "quantity",
              "type": "uint256"
            },
            {
              "internalType": "uint256",
              "name": "numFreq",
              "type": "uint256"
            }
          ],
          "stateMutability": "view",
          "type": "function"
        },
        {
          "inputs": [
            {
              "internalType": "uint256",
              "name": "",
              "type": "uint256"
            },
            {
              "internalType": "address",
              "name": "",
              "type": "address"
            }
          ],
          "name": "isParticipant",
          "outputs": [
            {
              "internalType": "bool",
              "name": "",
              "type": "bool"
            }
          ],
          "stateMutability": "view",
          "type": "function"
        },
        {
          "inputs": [
            {
              "internalType": "address",
              "name": "",
              "type": "address"
            },
            {
              "internalType": "uint256",
              "name": "",
              "type": "uint256"
            }
          ],
          "name": "myEnteredGoals",
          "outputs": [
            {
              "internalType": "uint256",
              "name": "",
              "type": "uint256"
            }
          ],
          "stateMutability": "view",
          "type": "function"
        },
        {
          "inputs": [
            {
              "internalType": "address",
              "name": "",
              "type": "address"
            },
            {
              "internalType": "uint256",
              "name": "",
              "type": "uint256"
            }
          ],
          "name": "myGoals",
          "outputs": [
            {
              "internalType": "uint256",
              "name": "",
              "type": "uint256"
            }
          ],
          "stateMutability": "view",
          "type": "function"
        },
        {
          "inputs": [],
          "name": "owner",
          "outputs": [
            {
              "internalType": "address",
              "name": "",
              "type": "address"
            }
          ],
          "stateMutability": "view",
          "type": "function"
        },
        {
          "inputs": [
            {
              "internalType": "uint256",
              "name": "",
              "type": "uint256"
            },
            {
              "internalType": "uint256",
              "name": "",
              "type": "uint256"
            }
          ],
          "name": "participants",
          "outputs": [
            {
              "internalType": "address",
              "name": "",
              "type": "address"
            }
          ],
          "stateMutability": "view",
          "type": "function"
        },
        {
          "inputs": [
            {
              "internalType": "uint256",
              "name": "",
              "type": "uint256"
            },
            {
              "internalType": "address",
              "name": "",
              "type": "address"
            }
          ],
          "name": "participantsAutenticatedFreq",
          "outputs": [
            {
              "internalType": "uint256",
              "name": "",
              "type": "uint256"
            }
          ],
          "stateMutability": "view",
          "type": "function"
        },
        {
          "inputs": [
            {
              "internalType": "uint256",
              "name": "",
              "type": "uint256"
            },
            {
              "internalType": "address",
              "name": "",
              "type": "address"
            }
          ],
          "name": "participantsFreq",
          "outputs": [
            {
              "internalType": "uint256",
              "name": "",
              "type": "uint256"
            }
          ],
          "stateMutability": "view",
          "type": "function"
        },
        {
          "inputs": [
            {
              "internalType": "uint256",
              "name": "",
              "type": "uint256"
            },
            {
              "internalType": "address",
              "name": "",
              "type": "address"
            },
            {
              "internalType": "uint256",
              "name": "",
              "type": "uint256"
            }
          ],
          "name": "participantsURI",
          "outputs": [
            {
              "internalType": "string",
              "name": "",
              "type": "string"
            }
          ],
          "stateMutability": "view",
          "type": "function"
        },
        {
          "inputs": [
            {
              "internalType": "uint256",
              "name": "_goalId",
              "type": "uint256"
            }
          ],
          "name": "startGoal",
          "outputs": [],
          "stateMutability": "nonpayable",
          "type": "function"
        },
        {
          "inputs": [],
          "name": "token",
          "outputs": [
            {
              "internalType": "contract GoalsToken",
              "name": "",
              "type": "address"
            }
          ],
          "stateMutability": "view",
          "type": "function"
        },
        {
          "inputs": [
            {
              "internalType": "uint256",
              "name": "_goalId",
              "type": "uint256"
            },
            {
              "internalType": "string",
              "name": "_imgaeURI",
              "type": "string"
            }
          ],
          "name": "updateFrequency",
          "outputs": [],
          "stateMutability": "nonpayable",
          "type": "function"
        },
        {
          "inputs": [
            {
              "internalType": "uint256",
              "name": "",
              "type": "uint256"
            },
            {
              "internalType": "address",
              "name": "",
              "type": "address"
            },
            {
              "internalType": "uint256",
              "name": "",
              "type": "uint256"
            }
          ],
          "name": "validatedURI",
          "outputs": [
            {
              "internalType": "uint256",
              "name": "",
              "type": "uint256"
            }
          ],
          "stateMutability": "view",
          "type": "function"
        }
      ],
      "evm": {
        "bytecode": {
          "linkReferences": {},
          "object": "60803461007c57601f61292438819003918201601f19168301916001600160401b038311848410176100815780849260209460405283398101031261007c57516001600160a01b0381169081900361007c5760018060a01b0319908160015416176001553390600054161760005560405161288c90816100988239f35b600080fd5b634e487b7160e01b600052604160045260246000fdfe610100604052600436101561001357600080fd5b60003560e01c80630409162014611ea457806309c935c014611b9257806327130b8d14611ae657806347368cf114611a5b57806347c0f95414611a135780634fe64436146119b557806357859a281461182d57806357a0225d146117e85780635911fc341461177c57806361449ca2146115aa57806371e9abab14611560578063758d9b891461151357806376e20e53146114b557806381fb1fb41461146b57806386d6b40f146114045780638da5cb5b146113db5780638e03adf314610e765780638e9e380e14610e1e578063a6f9dae114610d9e578063b501f4c8146106bb578063b97a7d2414610394578063c1e3bd3e146102dc578063d7a755ea14610264578063e594642c1461021c578063f644b3bb146101d4578063f78d7454146101745763fc0c546a1461014657600080fd5b3461016f57600036600319011261016f576001546040516001600160a01b039091168152602090f35b600080fd5b3461016f57604036600319011261016f5761018d61214f565b600435600052600760205260406000209060018060a01b03166000526020526101d06101bc6040600020612801565b604051918291602083526020830190612429565b0390f35b3461016f57604036600319011261016f576101ed61214f565b600435600052600460205260406000209060018060a01b03166000526020526020604060002054604051908152f35b3461016f57604036600319011261016f5761023561214f565b600435600052600860205260406000209060018060a01b03166000526020526020604060002054604051908152f35b3461016f57600036600319011261016f57336000526020600b6020526040600020906040519081602084549182815201936000526020600020916000905b8282106102c5576101d0856102b981890382612197565b604051918291826121e5565b8354865294850194600193840193909101906102a2565b3461016f5760208060031936011261016f5760043560005260038152604060002060405190818382549182815201908192600052846000209060005b8682821061037757868661032e82880383612197565b604051928392818401908285525180915260408401929160005b82811061035757505050500390f35b83516001600160a01b031685528695509381019392810192600101610348565b83546001600160a01b031685529093019260019283019201610318565b3461016f57600036600319011261016f57600280546103b2816121b8565b916103c06040519384612197565b818352602091828401809260026000527f405787fa12a823e0f2b7631cc41b3ba8828b3321ca811111fa75cd3aa3bb5ace906000925b84841061058157604080518881528951818a01819052600092600582901b83018101918a918c9085015b82871061042d5785850386f35b909192938280600192603f1989820301855287519061055b6105476104a561049261047f61046d6102a0885188528989015190808b8a01528801906123e9565b604088015187820360408901526123e9565b60608088015190878303908801526123e9565b60808087015190868303908701526123e9565b60a0808601519085015260c0808601519085015260e085015160e08501526101008086015190850152610120808601511515908501526101408086015115159085015261016080860151151590850152610180888060a01b038187015116908501526101a080860151908501526101c080860151908501526101e080860151908501526102008086015190850152610220808601519085830390860152612429565b6102408085015190848303908501526123e9565b916102608082015190830152610280809101519101529601920196019592919092610420565b60128760019260409a999a516105968161217b565b865481526105a5858801612344565b838201526105b4868801612344565b60408201526105c560038801612344565b60608201526105d660048801612344565b6080820152600587015460a0820152600687015460c0820152600787015460e08201526008808801546101008301526009880154809160ff92839182821615156101208701521c16151561014084015260109181831c161515610160840152868060a01b039060181c16610180830152600a8801546101a0830152600b8801546101c0830152600c8801546101e0830152600d88015461020083015261067e600e8901612801565b610220830152610690600f8901612344565b61024083015287015461026082015260118701546102808201528152019301930192919695966103f6565b3461016f576101e036600319011261016f576004356001600160401b03811161016f576106ec903690600401612221565b6024356001600160401b03811161016f5761070b903690600401612221565b6044356001600160401b03811161016f5761072a903690600401612221565b6064356001600160401b03811161016f57610749903690600401612221565b61010435801515810361016f576001600160401b03610164351161016f573660236101643501121561016f5761078561016435600401356121b8565b916107936040519384612197565b6101643560040135835260208301366024610164356004013560051b6101643501011161016f5760246101643501905b6024610164356004013560051b6101643501018210610d6c575050610184356001600160401b03811161016f576107fe903690600401612221565b9360e43560c4351015610d1c5760843515610cd7576101443515610c8257835115610c45576001546040516370a0823160e01b815233600482015290602090829060249082906001600160a01b03165afa8015610b4357600090610c11575b61086d91506101243511156125b8565b33600052600a602052610887604060002060025490612576565b60025495604051976108988961217b565b878952602089015260408801526060870152608086015260843560a086015260a43560c086015260c43560e086015260e43561010086015260006101208601526000610140860152151561016085015233610180850152610124356101a0850152610124356101c085015260006101e0850152610144356102008501526102208401526102408301526101a4356102608301526101c435610280830152600160401b811015610be55780600161095192016002556122cf565b919091610bfb578051825561096d6020820151600184016126cf565b61097e6040820151600284016126cf565b61098f6060820151600384016126cf565b6109a06080820151600484016126cf565b60a0810151600583015560c0810151600683015560e081015160078301556101008101516008830155600982016101208201511515815490610140840151151560081b61ff0061016086015115159362ff00006301000000600160b81b0361018089015160181b169560101b169360ff62010000600160b81b03199116169068ffffffffffffffffff60b81b1617911617171790556101a0810151600a8301556101c0810151600b8301556101e0810151600c830155610200810151600d830155610220810151805190600160401b8211610be557600e84015482600e860155808310610b6c575b50602001600e840160005260206000206000915b838310610b4f5785601161028087610abc610240820151600f86016126cf565b610260810151601085015501519101556001546040516323b872dd60e01b81523360048201523060248201526101243560448201529060209082906001600160a01b031681600081606481015b03925af18015610b4357610b1957005b610b3a9060203d602011610b3c575b610b328183612197565b810190612645565b005b503d610b28565b6040513d6000823e3d90fd5b6001602082610b60839451866126cf565b01920192019190610a9c565b600e85016000526020600020908382015b8183018110610b8d575050610a88565b80610b9a6001925461230a565b80610ba7575b5001610b7d565b601f908181118414610bc0575050600081555b88610ba0565b610bdc60009284845260208420920160051c82018583016126b8565b81835555610bba565b634e487b7160e01b600052604160045260246000fd5b634e487b7160e01b600052600060045260246000fd5b506020813d602011610c3d575b81610c2b60209383612197565b8101031261016f5761086d905161085d565b3d9150610c1e565b60405162461bcd60e51b8152602060048201526015602482015274555249206d757374206e6f7420626520656d70747960581b6044820152606490fd5b60405162461bcd60e51b815260206004820152602760248201527f4d6178207061727469636970616e7473206d75737420626520677265617465726044820152660207468616e20360cc1b6064820152608490fd5b60405162461bcd60e51b815260206004820152601d60248201527f546172676574206d7573742062652067726561746572207468616e20300000006044820152606490fd5b60405162461bcd60e51b815260206004820152602260248201527f53746172742064617465206d757374206265206265666f726520656e64206461604482015261746560f01b6064820152608490fd5b81356001600160401b03811161016f57602091610d93839260243691610164350101612221565b8152019101906107c3565b3461016f57602036600319011261016f57610db7612165565b600054906001600160a01b03908183163303610de1576001600160a01b0319909216911617600055005b60405162461bcd60e51b81526020600482015260156024820152742cb7ba9030b932903737ba103a34329037bbb732b960591b6044820152606490fd5b3461016f57604036600319011261016f57610e37612165565b6001600160a01b03166000908152600b602052604090208054602435919082101561016f57602091610e68916122a1565b90546040519160031b1c8152f35b3461016f57602036600319011261016f57610eb0610e956004356122cf565b50600901543360189190911c6001600160a01b031614612486565b610ecf60ff6009610ec26004356122cf565b50015460081c16156124de565b6009610edc6004356122cf565b5001805461ff0019166101001790556005610ef86004356122cf565b500154605581029080820460551481151715610fda57600c610f1b6004356122cf565b50015490600092600090600080916000905b868210611140575050610f5c9291610f57610f5792600a610f4f6004356122cf565b5001546127f4565b6127f4565b916001918360011c948015600014610ff05750506001546000546001600160a01b0391821695911693600119169250808304600214901517159050610fda5760405163a9059cbb60e01b81526001600160a01b03929092166004830152602482015290602090829060449082906000905af18015610b4357610b1957005b634e487b7160e01b600052601160045260246000fd5b610ffe9192939450856127d4565b9060005b83811061104f5750506001546000805460405163a9059cbb60e01b81526001600160a01b039182166004820152602481019790975260209550869450909116915082908160448101610b09565b84906004356000526006602052836040600020600390816020526110778460406000206122a1565b60018060a01b03915490841b1c1660005260205284604060002054146110a0575b505001611002565b61110893509060209160018060a01b03895416906004356000528084526110cb8560406000206122a1565b905460405163a9059cbb60e01b81526001600160a01b039290931b1c16600482015260248101929092529093849190829060009082906044820190565b03925af1918215610b43578692611121575b8490611098565b6111399060203d602011610b3c57610b328183612197565b508761111a565b90966004356000526008602052604060002060036020526111658960406000206122a1565b60018060a01b0391549060031b1c16600052602052604060002054868110156000146112865750600181018111610fda57600161124b9101976004356000526004602052604060002060036020526111c18260406000206122a1565b60018060a01b0391549060031b1c1660005260205260206111e860406000205480986125ab565b9660018060a01b03600154166004356000526003835261120c8460406000206122a1565b905460405163a9059cbb60e01b815260039290921b1c6001600160a01b0316600482015260248101929092529093849190829060009082906044820190565b03925af1918215610b4357600192611267575b505b0190610f2d565b61127f9060203d602011610b3c57610b328183612197565b508961125e565b909781606484041115806113d2575b156113455761130d91506004356000526004602052604060002060036020526112c28260406000206122a1565b60018060a01b0391549060031b1c1660005260205260206112e960406000205480966125ab565b9460018060a01b03600154166004356000526003835261120c8460406000206122a1565b03925af1918215610b4357600192611326575b50611260565b61133e9060203d602011610b3c57610b328183612197565b5089611320565b6004356000526004602052604060002060036020526113688260406000206122a1565b60018060a01b0391549060031b1c16600052602052604060002054918281810204811483151715610fda576113ae6113a78960209361130d96026127d4565b80976125ab565b9560018060a01b03600154166004356000526003835261120c8460406000206122a1565b50868210611295565b3461016f57600036600319011261016f576000546040516001600160a01b039091168152602090f35b3461016f5761141236612277565b91600052600760205260406000209060018060a01b0316600052602052604060002090815481101561016f57611447916122a1565b610bfb576114576101d091612344565b6040519182916020835260208301906123e9565b3461016f57611479366121cf565b9060005260036020526040600020805482101561016f5760209161149c916122a1565b905460405160039290921b1c6001600160a01b03168152f35b3461016f5760208060031936011261016f57600435806000526005825260406000203360005282526114f3600160ff6040600020541615151461265d565b600052600481526040600020336000528152604060002054604051908152f35b3461016f57604036600319011261016f5761152c61214f565b600435600052600560205260406000209060018060a01b0316600052602052602060ff604060002054166040519015158152f35b3461016f57604036600319011261016f57611579612165565b6001600160a01b03166000908152600a602052604090208054602435919082101561016f57602091610e68916122a1565b3461016f57602036600319011261016f5760043560025481101561016f576115d1906122cf565b508054906115e160018201612344565b60a0526115f060028201612344565b60e0526115ff60038201612344565b61160b60048301612344565b90600583015491600684015460078501546008860154600987015490600a88015492600b89015494600c8a015496600d8b015498600f8c0161164c90612344565b9b6010810154608052601101549c60405160c0526102809060c051528060c0516020015260c0510160a05190611681916123e9565b60c051810360c0516040015260e0519061169a916123e9565b60c051810360c051606001526116af916123e9565b60c051810360c051608001526116c4916123e9565b9860c05160a0015260c05160c0015260c05160e0015260c051610100015260ff8116151560c05161012001528060081c60ff16151560c05161014001528060101c60ff16151560c0516101600152600160a01b600190039060181c1660c051610180015260c0516101a0015260c0516101c0015260c0516101e0015260c051610200015260c051810360c051610220015261175e916123e9565b9060805160c051610240015260c051610260015260c051900360c051f35b3461016f57600036600319011261016f57336000526020600a6020526040600020906040519081602084549182815201936000526020600020916000905b8282106117d1576101d0856102b981890382612197565b8354865294850194600193840193909101906117ba565b3461016f576117f636612277565b91600052600960205260406000209060018060a01b03166000526020526040600020805482101561016f57602091610e68916122a1565b3461016f57604036600319011261016f576004356024356001600160401b03811161016f57611860903690600401612221565b908060005260209160058352604060002033600052835261188d600160ff6040600020541615151461265d565b61189d60ff6009610ec2856122cf565b6118bb600160ff60096118af866122cf565b5001541615151461252a565b8160005260068352604060002033600052835260406000205460056118df846122cf565b5001541115611955578160005260078352604060002033600052835260406000208054600160401b811015610be55761191d916001820181556122a1565b919091610bfb5761192d916126cf565b600052600681526040600020903360005252604060002080549060018201809211610fda5755005b60405162461bcd60e51b815260048101849052603260248201527f596f752068617665207265616368656420746865206d6178696d756d206e756d604482015271626572206f66206672657175656e6369657360701b6064820152608490fd5b3461016f5760208060031936011261016f57600435806000526005825260406000203360005282526119f3600160ff6040600020541615151461265d565b600052600881526040600020336000528152604060002054604051908152f35b3461016f57604036600319011261016f57611a2c61214f565b600435600052600660205260406000209060018060a01b03166000526020526020604060002054604051908152f35b3461016f57604036600319011261016f57611a7461214f565b600435600052602090600960205260406000209060018060a01b03166000526020526040600020906040519081602084549182815201936000526020600020916000905b828210611acf576101d0856102b981890382612197565b835486529485019460019384019390910190611ab8565b3461016f57602036600319011261016f57600435611b06610e95826122cf565b611b2060ff6009611b16846122cf565b50015416156125f9565b600c611b2b826122cf565b50015415611b4d57611b3e6009916122cf565b5001805460ff19166001179055005b60405162461bcd60e51b815260206004820152601c60248201527f4e6f207061727469636970616e747320696e207468697320676f616c000000006044820152606490fd5b3461016f57611ba0366121cf565b906006611bac826122cf565b5001548210611e53576001546040516370a0823160e01b81523360048201526001600160a01b039360209290919083908290602490829089165afa8015610b43578290600090611e22575b611c03925010156125b8565b600c611c0e846122cf565b500154600d611c1c856122cf565b5001541115611dee57611c3560ff6009610ec2866122cf565b8260005260058252604060002033600052825260ff60406000205416611d9e57611c6560ff6009611b16866122cf565b8260005260048252604060002033600052825280604060002055600a611c8a846122cf565b5001611c978282546125ab565b9055600c611ca4846122cf565b500180549060018201809211610fda57558260005260038252604060002090815490600160401b821015610be557600095611ce98386956001611d5a960181556122a1565b81549060031b908333831b921b19161790558587526005845260408720338852845260408720600160ff1982541617905560015416906040519687809481936323b872dd60e01b835230336004850160409194939294606082019560018060a01b0380921683521660208201520152565b03925af1908115610b4357610b3a93600b92611d81575b5033600052526040600020612576565b611d9790823d8411610b3c57610b328183612197565b5084611d71565b60405162461bcd60e51b815260048101839052602260248201527f596f75206861766520616c726561647920656e7465726564207468697320676f604482015261185b60f21b6064820152608490fd5b60405162461bcd60e51b815260048101839052600c60248201526b11dbd85b081a5cc8199d5b1b60a21b6044820152606490fd5b50508281813d8311611e4c575b611e398183612197565b8101031261016f5781611c039151611bf7565b503d611e2f565b60405162461bcd60e51b8152602060048201526024808201527f426574206d7573742062652067726561746572207468616e206d696e696d756d6044820152630818995d60e21b6064820152608490fd5b3461016f57608036600319011261016f57600435611ec061214f565b90606435906001600160401b03821161016f573660238301121561016f5781600401356024611eee826121b8565b90611efc6040519283612197565b828252602094858301602460059560051b8301019136831161016f576024889101915b83831061213f5750505050611f33846122cf565b509160018060a01b038060098095015460181c1633148015612132575b611f5990612486565b85600052600587526040600020971696876000528652600192600160ff604060002054161515036120d757611f9460ff6009610ec2896122cf565b611fa6600160ff60096118af8a6122cf565b856000526008875260406000208860005287526040600020546005611fca886122cf565b500154111561206c576000845b612006575b8888886000526008815260406000209160005252604060002061200260443582546125ab565b9055005b8251811015612067578660005281885260406000208960005288526040600020835182101561205257816120488796959493928b88948b1b8701015190612576565b0190919293611fd7565b84634e487b7160e01b60005260326004526000fd5b611fdc565b60405162461bcd60e51b815260048101889052603e60248201527f54686973207061727469636970616e742068617320726561636865642074686560448201527f206d6178696d756d206e756d626572206f66206672657175656e6369657300006064820152608490fd5b60405162461bcd60e51b815260048101889052602d60248201527f5468652061646472657373206973206e6f742061207061727469636970616e7460448201526c081bd9881d1a1a5cc819dbd85b609a1b6064820152608490fd5b5060005481163314611f50565b8235815291810191889101611f1f565b602435906001600160a01b038216820361016f57565b600435906001600160a01b038216820361016f57565b6102a081019081106001600160401b03821117610be557604052565b90601f801991011681019081106001600160401b03821117610be557604052565b6001600160401b038111610be55760051b60200190565b604090600319011261016f576004359060243590565b602090602060408183019282815285518094520193019160005b82811061220d575050505090565b8351855293810193928101926001016121ff565b81601f8201121561016f578035906001600160401b038211610be55760405192612255601f8401601f191660200185612197565b8284526020838301011161016f57816000926020809301838601378301015290565b606090600319011261016f57600435906024356001600160a01b038116810361016f579060443590565b80548210156122b95760005260206000200190600090565b634e487b7160e01b600052603260045260246000fd5b6002548110156122b9576012906002600052027f405787fa12a823e0f2b7631cc41b3ba8828b3321ca811111fa75cd3aa3bb5ace0190600090565b90600182811c9216801561233a575b602083101461232457565b634e487b7160e01b600052602260045260246000fd5b91607f1691612319565b906040519182600082546123578161230a565b908184526020946001916001811690816000146123c75750600114612388575b50505061238692500383612197565b565b600090815285812095935091905b8183106123af5750506123869350820101388080612377565b85548884018501529485019487945091830191612396565b9250505061238694925060ff191682840152151560051b820101388080612377565b919082519283825260005b848110612415575050826000602080949584010152601f8019910116010190565b6020818301810151848301820152016123f4565b90808251908181526020809101926020808460051b8301019501936000915b8483106124585750505050505090565b9091929394958480612476600193601f198682030187528a516123e9565b9801930193019194939290612448565b1561248d57565b60405162461bcd60e51b8152602060048201526024808201527f596f7520617265206e6f74207468652063726561746f72206f6620746869732060448201526319dbd85b60e21b6064820152608490fd5b156124e557565b60405162461bcd60e51b815260206004820152601f60248201527f476f616c2068617320616c7265616479206265656e20636f6d706c65746564006044820152606490fd5b1561253157565b60405162461bcd60e51b815260206004820152601860248201527f476f616c20686173206e6f7420737461727465642079657400000000000000006044820152606490fd5b8054600160401b811015610be557612593916001820181556122a1565b819291549060031b91821b91600019901b1916179055565b91908201809211610fda57565b156125bf57565b60405162461bcd60e51b8152602060048201526012602482015271496e73756666696369656e742066756e647360701b6044820152606490fd5b1561260057565b60405162461bcd60e51b815260206004820152601860248201527f476f616c2068617320616c7265616479207374617274656400000000000000006044820152606490fd5b9081602091031261016f5751801515810361016f5790565b1561266457565b60405162461bcd60e51b815260206004820152602660248201527f596f7520617265206e6f742061207061727469636970616e74206f66207468696044820152651cc819dbd85b60d21b6064820152608490fd5b8181106126c3575050565b600081556001016126b8565b91909182516001600160401b038111610be5576126ec825461230a565b601f8111612797575b50602080601f8311600114612732575081929394600092612727575b50508160011b916000199060031b1c1916179055565b015190503880612711565b90601f19831695846000526020600020926000905b88821061277f57505083600195969710612766575b505050811b019055565b015160001960f88460031b161c1916905538808061275c565b80600185968294968601518155019501930190612747565b6127c490836000526020600020601f840160051c810191602085106127ca575b601f0160051c01906126b8565b386126f5565b90915081906127b7565b81156127de570490565b634e487b7160e01b600052601260045260246000fd5b91908203918211610fda57565b90815461280d816121b8565b9261281b6040519485612197565b818452600090815260208082208186015b84841061283a575050505050565b600183819261284885612344565b81520192019301929061282c56fea26469706673582212206d1d79ab17ac2131b7ee7ed01d87a731766faee9a28bf59dd5a55f59a6c4c18c64736f6c63430008180033",
          "opcodes": "PUSH1 0x80 CALLVALUE PUSH2 0x7C JUMPI PUSH1 0x1F PUSH2 0x2924 CODESIZE DUP2 SWAP1 SUB SWAP2 DUP3 ADD PUSH1 0x1F NOT AND DUP4 ADD SWAP2 PUSH1 0x1 PUSH1 0x1 PUSH1 0x40 SHL SUB DUP4 GT DUP5 DUP5 LT OR PUSH2 0x81 JUMPI DUP1 DUP5 SWAP3 PUSH1 0x20 SWAP5 PUSH1 0x40 MSTORE DUP4 CODECOPY DUP2 ADD SUB SLT PUSH2 0x7C JUMPI MLOAD PUSH1 0x1 PUSH1 0x1 PUSH1 0xA0 SHL SUB DUP2 AND SWAP1 DUP2 SWAP1 SUB PUSH2 0x7C JUMPI PUSH1 0x1 DUP1 PUSH1 0xA0 SHL SUB NOT SWAP1 DUP2 PUSH1 0x1 SLOAD AND OR PUSH1 0x1 SSTORE CALLER SWAP1 PUSH1 0x0 SLOAD AND OR PUSH1 0x0 SSTORE PUSH1 0x40 MLOAD PUSH2 0x288C SWAP1 DUP2 PUSH2 0x98 DUP3 CODECOPY RETURN JUMPDEST PUSH1 0x0 DUP1 REVERT JUMPDEST PUSH4 0x4E487B71 PUSH1 0xE0 SHL PUSH1 0x0 MSTORE PUSH1 0x41 PUSH1 0x4 MSTORE PUSH1 0x24 PUSH1 0x0 REVERT INVALID PUSH2 0x100 PUSH1 0x40 MSTORE PUSH1 0x4 CALLDATASIZE LT ISZERO PUSH2 0x13 JUMPI PUSH1 0x0 DUP1 REVERT JUMPDEST PUSH1 0x0 CALLDATALOAD PUSH1 0xE0 SHR DUP1 PUSH4 0x4091620 EQ PUSH2 0x1EA4 JUMPI DUP1 PUSH4 0x9C935C0 EQ PUSH2 0x1B92 JUMPI DUP1 PUSH4 0x27130B8D EQ PUSH2 0x1AE6 JUMPI DUP1 PUSH4 0x47368CF1 EQ PUSH2 0x1A5B JUMPI DUP1 PUSH4 0x47C0F954 EQ PUSH2 0x1A13 JUMPI DUP1 PUSH4 0x4FE64436 EQ PUSH2 0x19B5 JUMPI DUP1 PUSH4 0x57859A28 EQ PUSH2 0x182D JUMPI DUP1 PUSH4 0x57A0225D EQ PUSH2 0x17E8 JUMPI DUP1 PUSH4 0x5911FC34 EQ PUSH2 0x177C JUMPI DUP1 PUSH4 0x61449CA2 EQ PUSH2 0x15AA JUMPI DUP1 PUSH4 0x71E9ABAB EQ PUSH2 0x1560 JUMPI DUP1 PUSH4 0x758D9B89 EQ PUSH2 0x1513 JUMPI DUP1 PUSH4 0x76E20E53 EQ PUSH2 0x14B5 JUMPI DUP1 PUSH4 0x81FB1FB4 EQ PUSH2 0x146B JUMPI DUP1 PUSH4 0x86D6B40F EQ PUSH2 0x1404 JUMPI DUP1 PUSH4 0x8DA5CB5B EQ PUSH2 0x13DB JUMPI DUP1 PUSH4 0x8E03ADF3 EQ PUSH2 0xE76 JUMPI DUP1 PUSH4 0x8E9E380E EQ PUSH2 0xE1E JUMPI DUP1 PUSH4 0xA6F9DAE1 EQ PUSH2 0xD9E JUMPI DUP1 PUSH4 0xB501F4C8 EQ PUSH2 0x6BB JUMPI DUP1 PUSH4 0xB97A7D24 EQ PUSH2 0x394 JUMPI DUP1 PUSH4 0xC1E3BD3E EQ PUSH2 0x2DC JUMPI DUP1 PUSH4 0xD7A755EA EQ PUSH2 0x264 JUMPI DUP1 PUSH4 0xE594642C EQ PUSH2 0x21C JUMPI DUP1 PUSH4 0xF644B3BB EQ PUSH2 0x1D4 JUMPI DUP1 PUSH4 0xF78D7454 EQ PUSH2 0x174 JUMPI PUSH4 0xFC0C546A EQ PUSH2 0x146 JUMPI PUSH1 0x0 DUP1 REVERT JUMPDEST CALLVALUE PUSH2 0x16F JUMPI PUSH1 0x0 CALLDATASIZE PUSH1 0x3 NOT ADD SLT PUSH2 0x16F JUMPI PUSH1 0x1 SLOAD PUSH1 0x40 MLOAD PUSH1 0x1 PUSH1 0x1 PUSH1 0xA0 SHL SUB SWAP1 SWAP2 AND DUP2 MSTORE PUSH1 0x20 SWAP1 RETURN JUMPDEST PUSH1 0x0 DUP1 REVERT JUMPDEST CALLVALUE PUSH2 0x16F JUMPI PUSH1 0x40 CALLDATASIZE PUSH1 0x3 NOT ADD SLT PUSH2 0x16F JUMPI PUSH2 0x18D PUSH2 0x214F JUMP JUMPDEST PUSH1 0x4 CALLDATALOAD PUSH1 0x0 MSTORE PUSH1 0x7 PUSH1 0x20 MSTORE PUSH1 0x40 PUSH1 0x0 KECCAK256 SWAP1 PUSH1 0x1 DUP1 PUSH1 0xA0 SHL SUB AND PUSH1 0x0 MSTORE PUSH1 0x20 MSTORE PUSH2 0x1D0 PUSH2 0x1BC PUSH1 0x40 PUSH1 0x0 KECCAK256 PUSH2 0x2801 JUMP JUMPDEST PUSH1 0x40 MLOAD SWAP2 DUP3 SWAP2 PUSH1 0x20 DUP4 MSTORE PUSH1 0x20 DUP4 ADD SWAP1 PUSH2 0x2429 JUMP JUMPDEST SUB SWAP1 RETURN JUMPDEST CALLVALUE PUSH2 0x16F JUMPI PUSH1 0x40 CALLDATASIZE PUSH1 0x3 NOT ADD SLT PUSH2 0x16F JUMPI PUSH2 0x1ED PUSH2 0x214F JUMP JUMPDEST PUSH1 0x4 CALLDATALOAD PUSH1 0x0 MSTORE PUSH1 0x4 PUSH1 0x20 MSTORE PUSH1 0x40 PUSH1 0x0 KECCAK256 SWAP1 PUSH1 0x1 DUP1 PUSH1 0xA0 SHL SUB AND PUSH1 0x0 MSTORE PUSH1 0x20 MSTORE PUSH1 0x20 PUSH1 0x40 PUSH1 0x0 KECCAK256 SLOAD PUSH1 0x40 MLOAD SWAP1 DUP2 MSTORE RETURN JUMPDEST CALLVALUE PUSH2 0x16F JUMPI PUSH1 0x40 CALLDATASIZE PUSH1 0x3 NOT ADD SLT PUSH2 0x16F JUMPI PUSH2 0x235 PUSH2 0x214F JUMP JUMPDEST PUSH1 0x4 CALLDATALOAD PUSH1 0x0 MSTORE PUSH1 0x8 PUSH1 0x20 MSTORE PUSH1 0x40 PUSH1 0x0 KECCAK256 SWAP1 PUSH1 0x1 DUP1 PUSH1 0xA0 SHL SUB AND PUSH1 0x0 MSTORE PUSH1 0x20 MSTORE PUSH1 0x20 PUSH1 0x40 PUSH1 0x0 KECCAK256 SLOAD PUSH1 0x40 MLOAD SWAP1 DUP2 MSTORE RETURN JUMPDEST CALLVALUE PUSH2 0x16F JUMPI PUSH1 0x0 CALLDATASIZE PUSH1 0x3 NOT ADD SLT PUSH2 0x16F JUMPI CALLER PUSH1 0x0 MSTORE PUSH1 0x20 PUSH1 0xB PUSH1 0x20 MSTORE PUSH1 0x40 PUSH1 0x0 KECCAK256 SWAP1 PUSH1 0x40 MLOAD SWAP1 DUP2 PUSH1 0x20 DUP5 SLOAD SWAP2 DUP3 DUP2 MSTORE ADD SWAP4 PUSH1 0x0 MSTORE PUSH1 0x20 PUSH1 0x0 KECCAK256 SWAP2 PUSH1 0x0 SWAP1 JUMPDEST DUP3 DUP3 LT PUSH2 0x2C5 JUMPI PUSH2 0x1D0 DUP6 PUSH2 0x2B9 DUP2 DUP10 SUB DUP3 PUSH2 0x2197 JUMP JUMPDEST PUSH1 0x40 MLOAD SWAP2 DUP3 SWAP2 DUP3 PUSH2 0x21E5 JUMP JUMPDEST DUP4 SLOAD DUP7 MSTORE SWAP5 DUP6 ADD SWAP5 PUSH1 0x1 SWAP4 DUP5 ADD SWAP4 SWAP1 SWAP2 ADD SWAP1 PUSH2 0x2A2 JUMP JUMPDEST CALLVALUE PUSH2 0x16F JUMPI PUSH1 0x20 DUP1 PUSH1 0x3 NOT CALLDATASIZE ADD SLT PUSH2 0x16F JUMPI PUSH1 0x4 CALLDATALOAD PUSH1 0x0 MSTORE PUSH1 0x3 DUP2 MSTORE PUSH1 0x40 PUSH1 0x0 KECCAK256 PUSH1 0x40 MLOAD SWAP1 DUP2 DUP4 DUP3 SLOAD SWAP2 DUP3 DUP2 MSTORE ADD SWAP1 DUP2 SWAP3 PUSH1 0x0 MSTORE DUP5 PUSH1 0x0 KECCAK256 SWAP1 PUSH1 0x0 JUMPDEST DUP7 DUP3 DUP3 LT PUSH2 0x377 JUMPI DUP7 DUP7 PUSH2 0x32E DUP3 DUP9 SUB DUP4 PUSH2 0x2197 JUMP JUMPDEST PUSH1 0x40 MLOAD SWAP3 DUP4 SWAP3 DUP2 DUP5 ADD SWAP1 DUP3 DUP6 MSTORE MLOAD DUP1 SWAP2 MSTORE PUSH1 0x40 DUP5 ADD SWAP3 SWAP2 PUSH1 0x0 JUMPDEST DUP3 DUP2 LT PUSH2 0x357 JUMPI POP POP POP POP SUB SWAP1 RETURN JUMPDEST DUP4 MLOAD PUSH1 0x1 PUSH1 0x1 PUSH1 0xA0 SHL SUB AND DUP6 MSTORE DUP7 SWAP6 POP SWAP4 DUP2 ADD SWAP4 SWAP3 DUP2 ADD SWAP3 PUSH1 0x1 ADD PUSH2 0x348 JUMP JUMPDEST DUP4 SLOAD PUSH1 0x1 PUSH1 0x1 PUSH1 0xA0 SHL SUB AND DUP6 MSTORE SWAP1 SWAP4 ADD SWAP3 PUSH1 0x1 SWAP3 DUP4 ADD SWAP3 ADD PUSH2 0x318 JUMP JUMPDEST CALLVALUE PUSH2 0x16F JUMPI PUSH1 0x0 CALLDATASIZE PUSH1 0x3 NOT ADD SLT PUSH2 0x16F JUMPI PUSH1 0x2 DUP1 SLOAD PUSH2 0x3B2 DUP2 PUSH2 0x21B8 JUMP JUMPDEST SWAP2 PUSH2 0x3C0 PUSH1 0x40 MLOAD SWAP4 DUP5 PUSH2 0x2197 JUMP JUMPDEST DUP2 DUP4 MSTORE PUSH1 0x20 SWAP2 DUP3 DUP5 ADD DUP1 SWAP3 PUSH1 0x2 PUSH1 0x0 MSTORE PUSH32 0x405787FA12A823E0F2B7631CC41B3BA8828B3321CA811111FA75CD3AA3BB5ACE SWAP1 PUSH1 0x0 SWAP3 JUMPDEST DUP5 DUP5 LT PUSH2 0x581 JUMPI PUSH1 0x40 DUP1 MLOAD DUP9 DUP2 MSTORE DUP10 MLOAD DUP2 DUP11 ADD DUP2 SWAP1 MSTORE PUSH1 0x0 SWAP3 PUSH1 0x5 DUP3 SWAP1 SHL DUP4 ADD DUP2 ADD SWAP2 DUP11 SWAP2 DUP13 SWAP1 DUP6 ADD JUMPDEST DUP3 DUP8 LT PUSH2 0x42D JUMPI DUP6 DUP6 SUB DUP7 RETURN JUMPDEST SWAP1 SWAP2 SWAP3 SWAP4 DUP3 DUP1 PUSH1 0x1 SWAP3 PUSH1 0x3F NOT DUP10 DUP3 SUB ADD DUP6 MSTORE DUP8 MLOAD SWAP1 PUSH2 0x55B PUSH2 0x547 PUSH2 0x4A5 PUSH2 0x492 PUSH2 0x47F PUSH2 0x46D PUSH2 0x2A0 DUP9 MLOAD DUP9 MSTORE DUP10 DUP10 ADD MLOAD SWAP1 DUP1 DUP12 DUP11 ADD MSTORE DUP9 ADD SWAP1 PUSH2 0x23E9 JUMP JUMPDEST PUSH1 0x40 DUP9 ADD MLOAD DUP8 DUP3 SUB PUSH1 0x40 DUP10 ADD MSTORE PUSH2 0x23E9 JUMP JUMPDEST PUSH1 0x60 DUP1 DUP9 ADD MLOAD SWAP1 DUP8 DUP4 SUB SWAP1 DUP9 ADD MSTORE PUSH2 0x23E9 JUMP JUMPDEST PUSH1 0x80 DUP1 DUP8 ADD MLOAD SWAP1 DUP7 DUP4 SUB SWAP1 DUP8 ADD MSTORE PUSH2 0x23E9 JUMP JUMPDEST PUSH1 0xA0 DUP1 DUP7 ADD MLOAD SWAP1 DUP6 ADD MSTORE PUSH1 0xC0 DUP1 DUP7 ADD MLOAD SWAP1 DUP6 ADD MSTORE PUSH1 0xE0 DUP6 ADD MLOAD PUSH1 0xE0 DUP6 ADD MSTORE PUSH2 0x100 DUP1 DUP7 ADD MLOAD SWAP1 DUP6 ADD MSTORE PUSH2 0x120 DUP1 DUP7 ADD MLOAD ISZERO ISZERO SWAP1 DUP6 ADD MSTORE PUSH2 0x140 DUP1 DUP7 ADD MLOAD ISZERO ISZERO SWAP1 DUP6 ADD MSTORE PUSH2 0x160 DUP1 DUP7 ADD MLOAD ISZERO ISZERO SWAP1 DUP6 ADD MSTORE PUSH2 0x180 DUP9 DUP1 PUSH1 0xA0 SHL SUB DUP2 DUP8 ADD MLOAD AND SWAP1 DUP6 ADD MSTORE PUSH2 0x1A0 DUP1 DUP7 ADD MLOAD SWAP1 DUP6 ADD MSTORE PUSH2 0x1C0 DUP1 DUP7 ADD MLOAD SWAP1 DUP6 ADD MSTORE PUSH2 0x1E0 DUP1 DUP7 ADD MLOAD SWAP1 DUP6 ADD MSTORE PUSH2 0x200 DUP1 DUP7 ADD MLOAD SWAP1 DUP6 ADD MSTORE PUSH2 0x220 DUP1 DUP7 ADD MLOAD SWAP1 DUP6 DUP4 SUB SWAP1 DUP7 ADD MSTORE PUSH2 0x2429 JUMP JUMPDEST PUSH2 0x240 DUP1 DUP6 ADD MLOAD SWAP1 DUP5 DUP4 SUB SWAP1 DUP6 ADD MSTORE PUSH2 0x23E9 JUMP JUMPDEST SWAP2 PUSH2 0x260 DUP1 DUP3 ADD MLOAD SWAP1 DUP4 ADD MSTORE PUSH2 0x280 DUP1 SWAP2 ADD MLOAD SWAP2 ADD MSTORE SWAP7 ADD SWAP3 ADD SWAP7 ADD SWAP6 SWAP3 SWAP2 SWAP1 SWAP3 PUSH2 0x420 JUMP JUMPDEST PUSH1 0x12 DUP8 PUSH1 0x1 SWAP3 PUSH1 0x40 SWAP11 SWAP10 SWAP11 MLOAD PUSH2 0x596 DUP2 PUSH2 0x217B JUMP JUMPDEST DUP7 SLOAD DUP2 MSTORE PUSH2 0x5A5 DUP6 DUP9 ADD PUSH2 0x2344 JUMP JUMPDEST DUP4 DUP3 ADD MSTORE PUSH2 0x5B4 DUP7 DUP9 ADD PUSH2 0x2344 JUMP JUMPDEST PUSH1 0x40 DUP3 ADD MSTORE PUSH2 0x5C5 PUSH1 0x3 DUP9 ADD PUSH2 0x2344 JUMP JUMPDEST PUSH1 0x60 DUP3 ADD MSTORE PUSH2 0x5D6 PUSH1 0x4 DUP9 ADD PUSH2 0x2344 JUMP JUMPDEST PUSH1 0x80 DUP3 ADD MSTORE PUSH1 0x5 DUP8 ADD SLOAD PUSH1 0xA0 DUP3 ADD MSTORE PUSH1 0x6 DUP8 ADD SLOAD PUSH1 0xC0 DUP3 ADD MSTORE PUSH1 0x7 DUP8 ADD SLOAD PUSH1 0xE0 DUP3 ADD MSTORE PUSH1 0x8 DUP1 DUP9 ADD SLOAD PUSH2 0x100 DUP4 ADD MSTORE PUSH1 0x9 DUP9 ADD SLOAD DUP1 SWAP2 PUSH1 0xFF SWAP3 DUP4 SWAP2 DUP3 DUP3 AND ISZERO ISZERO PUSH2 0x120 DUP8 ADD MSTORE SHR AND ISZERO ISZERO PUSH2 0x140 DUP5 ADD MSTORE PUSH1 0x10 SWAP2 DUP2 DUP4 SHR AND ISZERO ISZERO PUSH2 0x160 DUP5 ADD MSTORE DUP7 DUP1 PUSH1 0xA0 SHL SUB SWAP1 PUSH1 0x18 SHR AND PUSH2 0x180 DUP4 ADD MSTORE PUSH1 0xA DUP9 ADD SLOAD PUSH2 0x1A0 DUP4 ADD MSTORE PUSH1 0xB DUP9 ADD SLOAD PUSH2 0x1C0 DUP4 ADD MSTORE PUSH1 0xC DUP9 ADD SLOAD PUSH2 0x1E0 DUP4 ADD MSTORE PUSH1 0xD DUP9 ADD SLOAD PUSH2 0x200 DUP4 ADD MSTORE PUSH2 0x67E PUSH1 0xE DUP10 ADD PUSH2 0x2801 JUMP JUMPDEST PUSH2 0x220 DUP4 ADD MSTORE PUSH2 0x690 PUSH1 0xF DUP10 ADD PUSH2 0x2344 JUMP JUMPDEST PUSH2 0x240 DUP4 ADD MSTORE DUP8 ADD SLOAD PUSH2 0x260 DUP3 ADD MSTORE PUSH1 0x11 DUP8 ADD SLOAD PUSH2 0x280 DUP3 ADD MSTORE DUP2 MSTORE ADD SWAP4 ADD SWAP4 ADD SWAP3 SWAP2 SWAP7 SWAP6 SWAP7 PUSH2 0x3F6 JUMP JUMPDEST CALLVALUE PUSH2 0x16F JUMPI PUSH2 0x1E0 CALLDATASIZE PUSH1 0x3 NOT ADD SLT PUSH2 0x16F JUMPI PUSH1 0x4 CALLDATALOAD PUSH1 0x1 PUSH1 0x1 PUSH1 0x40 SHL SUB DUP2 GT PUSH2 0x16F JUMPI PUSH2 0x6EC SWAP1 CALLDATASIZE SWAP1 PUSH1 0x4 ADD PUSH2 0x2221 JUMP JUMPDEST PUSH1 0x24 CALLDATALOAD PUSH1 0x1 PUSH1 0x1 PUSH1 0x40 SHL SUB DUP2 GT PUSH2 0x16F JUMPI PUSH2 0x70B SWAP1 CALLDATASIZE SWAP1 PUSH1 0x4 ADD PUSH2 0x2221 JUMP JUMPDEST PUSH1 0x44 CALLDATALOAD PUSH1 0x1 PUSH1 0x1 PUSH1 0x40 SHL SUB DUP2 GT PUSH2 0x16F JUMPI PUSH2 0x72A SWAP1 CALLDATASIZE SWAP1 PUSH1 0x4 ADD PUSH2 0x2221 JUMP JUMPDEST PUSH1 0x64 CALLDATALOAD PUSH1 0x1 PUSH1 0x1 PUSH1 0x40 SHL SUB DUP2 GT PUSH2 0x16F JUMPI PUSH2 0x749 SWAP1 CALLDATASIZE SWAP1 PUSH1 0x4 ADD PUSH2 0x2221 JUMP JUMPDEST PUSH2 0x104 CALLDATALOAD DUP1 ISZERO ISZERO DUP2 SUB PUSH2 0x16F JUMPI PUSH1 0x1 PUSH1 0x1 PUSH1 0x40 SHL SUB PUSH2 0x164 CALLDATALOAD GT PUSH2 0x16F JUMPI CALLDATASIZE PUSH1 0x23 PUSH2 0x164 CALLDATALOAD ADD SLT ISZERO PUSH2 0x16F JUMPI PUSH2 0x785 PUSH2 0x164 CALLDATALOAD PUSH1 0x4 ADD CALLDATALOAD PUSH2 0x21B8 JUMP JUMPDEST SWAP2 PUSH2 0x793 PUSH1 0x40 MLOAD SWAP4 DUP5 PUSH2 0x2197 JUMP JUMPDEST PUSH2 0x164 CALLDATALOAD PUSH1 0x4 ADD CALLDATALOAD DUP4 MSTORE PUSH1 0x20 DUP4 ADD CALLDATASIZE PUSH1 0x24 PUSH2 0x164 CALLDATALOAD PUSH1 0x4 ADD CALLDATALOAD PUSH1 0x5 SHL PUSH2 0x164 CALLDATALOAD ADD ADD GT PUSH2 0x16F JUMPI PUSH1 0x24 PUSH2 0x164 CALLDATALOAD ADD SWAP1 JUMPDEST PUSH1 0x24 PUSH2 0x164 CALLDATALOAD PUSH1 0x4 ADD CALLDATALOAD PUSH1 0x5 SHL PUSH2 0x164 CALLDATALOAD ADD ADD DUP3 LT PUSH2 0xD6C JUMPI POP POP PUSH2 0x184 CALLDATALOAD PUSH1 0x1 PUSH1 0x1 PUSH1 0x40 SHL SUB DUP2 GT PUSH2 0x16F JUMPI PUSH2 0x7FE SWAP1 CALLDATASIZE SWAP1 PUSH1 0x4 ADD PUSH2 0x2221 JUMP JUMPDEST SWAP4 PUSH1 0xE4 CALLDATALOAD PUSH1 0xC4 CALLDATALOAD LT ISZERO PUSH2 0xD1C JUMPI PUSH1 0x84 CALLDATALOAD ISZERO PUSH2 0xCD7 JUMPI PUSH2 0x144 CALLDATALOAD ISZERO PUSH2 0xC82 JUMPI DUP4 MLOAD ISZERO PUSH2 0xC45 JUMPI PUSH1 0x1 SLOAD PUSH1 0x40 MLOAD PUSH4 0x70A08231 PUSH1 0xE0 SHL DUP2 MSTORE CALLER PUSH1 0x4 DUP3 ADD MSTORE SWAP1 PUSH1 0x20 SWAP1 DUP3 SWAP1 PUSH1 0x24 SWAP1 DUP3 SWAP1 PUSH1 0x1 PUSH1 0x1 PUSH1 0xA0 SHL SUB AND GAS STATICCALL DUP1 ISZERO PUSH2 0xB43 JUMPI PUSH1 0x0 SWAP1 PUSH2 0xC11 JUMPI JUMPDEST PUSH2 0x86D SWAP2 POP PUSH2 0x124 CALLDATALOAD GT ISZERO PUSH2 0x25B8 JUMP JUMPDEST CALLER PUSH1 0x0 MSTORE PUSH1 0xA PUSH1 0x20 MSTORE PUSH2 0x887 PUSH1 0x40 PUSH1 0x0 KECCAK256 PUSH1 0x2 SLOAD SWAP1 PUSH2 0x2576 JUMP JUMPDEST PUSH1 0x2 SLOAD SWAP6 PUSH1 0x40 MLOAD SWAP8 PUSH2 0x898 DUP10 PUSH2 0x217B JUMP JUMPDEST DUP8 DUP10 MSTORE PUSH1 0x20 DUP10 ADD MSTORE PUSH1 0x40 DUP9 ADD MSTORE PUSH1 0x60 DUP8 ADD MSTORE PUSH1 0x80 DUP7 ADD MSTORE PUSH1 0x84 CALLDATALOAD PUSH1 0xA0 DUP7 ADD MSTORE PUSH1 0xA4 CALLDATALOAD PUSH1 0xC0 DUP7 ADD MSTORE PUSH1 0xC4 CALLDATALOAD PUSH1 0xE0 DUP7 ADD MSTORE PUSH1 0xE4 CALLDATALOAD PUSH2 0x100 DUP7 ADD MSTORE PUSH1 0x0 PUSH2 0x120 DUP7 ADD MSTORE PUSH1 0x0 PUSH2 0x140 DUP7 ADD MSTORE ISZERO ISZERO PUSH2 0x160 DUP6 ADD MSTORE CALLER PUSH2 0x180 DUP6 ADD MSTORE PUSH2 0x124 CALLDATALOAD PUSH2 0x1A0 DUP6 ADD MSTORE PUSH2 0x124 CALLDATALOAD PUSH2 0x1C0 DUP6 ADD MSTORE PUSH1 0x0 PUSH2 0x1E0 DUP6 ADD MSTORE PUSH2 0x144 CALLDATALOAD PUSH2 0x200 DUP6 ADD MSTORE PUSH2 0x220 DUP5 ADD MSTORE PUSH2 0x240 DUP4 ADD MSTORE PUSH2 0x1A4 CALLDATALOAD PUSH2 0x260 DUP4 ADD MSTORE PUSH2 0x1C4 CALLDATALOAD PUSH2 0x280 DUP4 ADD MSTORE PUSH1 0x1 PUSH1 0x40 SHL DUP2 LT ISZERO PUSH2 0xBE5 JUMPI DUP1 PUSH1 0x1 PUSH2 0x951 SWAP3 ADD PUSH1 0x2 SSTORE PUSH2 0x22CF JUMP JUMPDEST SWAP2 SWAP1 SWAP2 PUSH2 0xBFB JUMPI DUP1 MLOAD DUP3 SSTORE PUSH2 0x96D PUSH1 0x20 DUP3 ADD MLOAD PUSH1 0x1 DUP5 ADD PUSH2 0x26CF JUMP JUMPDEST PUSH2 0x97E PUSH1 0x40 DUP3 ADD MLOAD PUSH1 0x2 DUP5 ADD PUSH2 0x26CF JUMP JUMPDEST PUSH2 0x98F PUSH1 0x60 DUP3 ADD MLOAD PUSH1 0x3 DUP5 ADD PUSH2 0x26CF JUMP JUMPDEST PUSH2 0x9A0 PUSH1 0x80 DUP3 ADD MLOAD PUSH1 0x4 DUP5 ADD PUSH2 0x26CF JUMP JUMPDEST PUSH1 0xA0 DUP2 ADD MLOAD PUSH1 0x5 DUP4 ADD SSTORE PUSH1 0xC0 DUP2 ADD MLOAD PUSH1 0x6 DUP4 ADD SSTORE PUSH1 0xE0 DUP2 ADD MLOAD PUSH1 0x7 DUP4 ADD SSTORE PUSH2 0x100 DUP2 ADD MLOAD PUSH1 0x8 DUP4 ADD SSTORE PUSH1 0x9 DUP3 ADD PUSH2 0x120 DUP3 ADD MLOAD ISZERO ISZERO DUP2 SLOAD SWAP1 PUSH2 0x140 DUP5 ADD MLOAD ISZERO ISZERO PUSH1 0x8 SHL PUSH2 0xFF00 PUSH2 0x160 DUP7 ADD MLOAD ISZERO ISZERO SWAP4 PUSH3 0xFF0000 PUSH4 0x1000000 PUSH1 0x1 PUSH1 0xB8 SHL SUB PUSH2 0x180 DUP10 ADD MLOAD PUSH1 0x18 SHL AND SWAP6 PUSH1 0x10 SHL AND SWAP4 PUSH1 0xFF PUSH3 0x10000 PUSH1 0x1 PUSH1 0xB8 SHL SUB NOT SWAP2 AND AND SWAP1 PUSH9 0xFFFFFFFFFFFFFFFFFF PUSH1 0xB8 SHL AND OR SWAP2 AND OR OR OR SWAP1 SSTORE PUSH2 0x1A0 DUP2 ADD MLOAD PUSH1 0xA DUP4 ADD SSTORE PUSH2 0x1C0 DUP2 ADD MLOAD PUSH1 0xB DUP4 ADD SSTORE PUSH2 0x1E0 DUP2 ADD MLOAD PUSH1 0xC DUP4 ADD SSTORE PUSH2 0x200 DUP2 ADD MLOAD PUSH1 0xD DUP4 ADD SSTORE PUSH2 0x220 DUP2 ADD MLOAD DUP1 MLOAD SWAP1 PUSH1 0x1 PUSH1 0x40 SHL DUP3 GT PUSH2 0xBE5 JUMPI PUSH1 0xE DUP5 ADD SLOAD DUP3 PUSH1 0xE DUP7 ADD SSTORE DUP1 DUP4 LT PUSH2 0xB6C JUMPI JUMPDEST POP PUSH1 0x20 ADD PUSH1 0xE DUP5 ADD PUSH1 0x0 MSTORE PUSH1 0x20 PUSH1 0x0 KECCAK256 PUSH1 0x0 SWAP2 JUMPDEST DUP4 DUP4 LT PUSH2 0xB4F JUMPI DUP6 PUSH1 0x11 PUSH2 0x280 DUP8 PUSH2 0xABC PUSH2 0x240 DUP3 ADD MLOAD PUSH1 0xF DUP7 ADD PUSH2 0x26CF JUMP JUMPDEST PUSH2 0x260 DUP2 ADD MLOAD PUSH1 0x10 DUP6 ADD SSTORE ADD MLOAD SWAP2 ADD SSTORE PUSH1 0x1 SLOAD PUSH1 0x40 MLOAD PUSH4 0x23B872DD PUSH1 0xE0 SHL DUP2 MSTORE CALLER PUSH1 0x4 DUP3 ADD MSTORE ADDRESS PUSH1 0x24 DUP3 ADD MSTORE PUSH2 0x124 CALLDATALOAD PUSH1 0x44 DUP3 ADD MSTORE SWAP1 PUSH1 0x20 SWAP1 DUP3 SWAP1 PUSH1 0x1 PUSH1 0x1 PUSH1 0xA0 SHL SUB AND DUP2 PUSH1 0x0 DUP2 PUSH1 0x64 DUP2 ADD JUMPDEST SUB SWAP3 GAS CALL DUP1 ISZERO PUSH2 0xB43 JUMPI PUSH2 0xB19 JUMPI STOP JUMPDEST PUSH2 0xB3A SWAP1 PUSH1 0x20 RETURNDATASIZE PUSH1 0x20 GT PUSH2 0xB3C JUMPI JUMPDEST PUSH2 0xB32 DUP2 DUP4 PUSH2 0x2197 JUMP JUMPDEST DUP2 ADD SWAP1 PUSH2 0x2645 JUMP JUMPDEST STOP JUMPDEST POP RETURNDATASIZE PUSH2 0xB28 JUMP JUMPDEST PUSH1 0x40 MLOAD RETURNDATASIZE PUSH1 0x0 DUP3 RETURNDATACOPY RETURNDATASIZE SWAP1 REVERT JUMPDEST PUSH1 0x1 PUSH1 0x20 DUP3 PUSH2 0xB60 DUP4 SWAP5 MLOAD DUP7 PUSH2 0x26CF JUMP JUMPDEST ADD SWAP3 ADD SWAP3 ADD SWAP2 SWAP1 PUSH2 0xA9C JUMP JUMPDEST PUSH1 0xE DUP6 ADD PUSH1 0x0 MSTORE PUSH1 0x20 PUSH1 0x0 KECCAK256 SWAP1 DUP4 DUP3 ADD JUMPDEST DUP2 DUP4 ADD DUP2 LT PUSH2 0xB8D JUMPI POP POP PUSH2 0xA88 JUMP JUMPDEST DUP1 PUSH2 0xB9A PUSH1 0x1 SWAP3 SLOAD PUSH2 0x230A JUMP JUMPDEST DUP1 PUSH2 0xBA7 JUMPI JUMPDEST POP ADD PUSH2 0xB7D JUMP JUMPDEST PUSH1 0x1F SWAP1 DUP2 DUP2 GT DUP5 EQ PUSH2 0xBC0 JUMPI POP POP PUSH1 0x0 DUP2 SSTORE JUMPDEST DUP9 PUSH2 0xBA0 JUMP JUMPDEST PUSH2 0xBDC PUSH1 0x0 SWAP3 DUP5 DUP5 MSTORE PUSH1 0x20 DUP5 KECCAK256 SWAP3 ADD PUSH1 0x5 SHR DUP3 ADD DUP6 DUP4 ADD PUSH2 0x26B8 JUMP JUMPDEST DUP2 DUP4 SSTORE SSTORE PUSH2 0xBBA JUMP JUMPDEST PUSH4 0x4E487B71 PUSH1 0xE0 SHL PUSH1 0x0 MSTORE PUSH1 0x41 PUSH1 0x4 MSTORE PUSH1 0x24 PUSH1 0x0 REVERT JUMPDEST PUSH4 0x4E487B71 PUSH1 0xE0 SHL PUSH1 0x0 MSTORE PUSH1 0x0 PUSH1 0x4 MSTORE PUSH1 0x24 PUSH1 0x0 REVERT JUMPDEST POP PUSH1 0x20 DUP2 RETURNDATASIZE PUSH1 0x20 GT PUSH2 0xC3D JUMPI JUMPDEST DUP2 PUSH2 0xC2B PUSH1 0x20 SWAP4 DUP4 PUSH2 0x2197 JUMP JUMPDEST DUP2 ADD SUB SLT PUSH2 0x16F JUMPI PUSH2 0x86D SWAP1 MLOAD PUSH2 0x85D JUMP JUMPDEST RETURNDATASIZE SWAP2 POP PUSH2 0xC1E JUMP JUMPDEST PUSH1 0x40 MLOAD PUSH3 0x461BCD PUSH1 0xE5 SHL DUP2 MSTORE PUSH1 0x20 PUSH1 0x4 DUP3 ADD MSTORE PUSH1 0x15 PUSH1 0x24 DUP3 ADD MSTORE PUSH21 0x555249206D757374206E6F7420626520656D707479 PUSH1 0x58 SHL PUSH1 0x44 DUP3 ADD MSTORE PUSH1 0x64 SWAP1 REVERT JUMPDEST PUSH1 0x40 MLOAD PUSH3 0x461BCD PUSH1 0xE5 SHL DUP2 MSTORE PUSH1 0x20 PUSH1 0x4 DUP3 ADD MSTORE PUSH1 0x27 PUSH1 0x24 DUP3 ADD MSTORE PUSH32 0x4D6178207061727469636970616E7473206D7573742062652067726561746572 PUSH1 0x44 DUP3 ADD MSTORE PUSH7 0x207468616E203 PUSH1 0xCC SHL PUSH1 0x64 DUP3 ADD MSTORE PUSH1 0x84 SWAP1 REVERT JUMPDEST PUSH1 0x40 MLOAD PUSH3 0x461BCD PUSH1 0xE5 SHL DUP2 MSTORE PUSH1 0x20 PUSH1 0x4 DUP3 ADD MSTORE PUSH1 0x1D PUSH1 0x24 DUP3 ADD MSTORE PUSH32 0x546172676574206D7573742062652067726561746572207468616E2030000000 PUSH1 0x44 DUP3 ADD MSTORE PUSH1 0x64 SWAP1 REVERT JUMPDEST PUSH1 0x40 MLOAD PUSH3 0x461BCD PUSH1 0xE5 SHL DUP2 MSTORE PUSH1 0x20 PUSH1 0x4 DUP3 ADD MSTORE PUSH1 0x22 PUSH1 0x24 DUP3 ADD MSTORE PUSH32 0x53746172742064617465206D757374206265206265666F726520656E64206461 PUSH1 0x44 DUP3 ADD MSTORE PUSH2 0x7465 PUSH1 0xF0 SHL PUSH1 0x64 DUP3 ADD MSTORE PUSH1 0x84 SWAP1 REVERT JUMPDEST DUP2 CALLDATALOAD PUSH1 0x1 PUSH1 0x1 PUSH1 0x40 SHL SUB DUP2 GT PUSH2 0x16F JUMPI PUSH1 0x20 SWAP2 PUSH2 0xD93 DUP4 SWAP3 PUSH1 0x24 CALLDATASIZE SWAP2 PUSH2 0x164 CALLDATALOAD ADD ADD PUSH2 0x2221 JUMP JUMPDEST DUP2 MSTORE ADD SWAP2 ADD SWAP1 PUSH2 0x7C3 JUMP JUMPDEST CALLVALUE PUSH2 0x16F JUMPI PUSH1 0x20 CALLDATASIZE PUSH1 0x3 NOT ADD SLT PUSH2 0x16F JUMPI PUSH2 0xDB7 PUSH2 0x2165 JUMP JUMPDEST PUSH1 0x0 SLOAD SWAP1 PUSH1 0x1 PUSH1 0x1 PUSH1 0xA0 SHL SUB SWAP1 DUP2 DUP4 AND CALLER SUB PUSH2 0xDE1 JUMPI PUSH1 0x1 PUSH1 0x1 PUSH1 0xA0 SHL SUB NOT SWAP1 SWAP3 AND SWAP2 AND OR PUSH1 0x0 SSTORE STOP JUMPDEST PUSH1 0x40 MLOAD PUSH3 0x461BCD PUSH1 0xE5 SHL DUP2 MSTORE PUSH1 0x20 PUSH1 0x4 DUP3 ADD MSTORE PUSH1 0x15 PUSH1 0x24 DUP3 ADD MSTORE PUSH21 0x2CB7BA9030B932903737BA103A34329037BBB732B9 PUSH1 0x59 SHL PUSH1 0x44 DUP3 ADD MSTORE PUSH1 0x64 SWAP1 REVERT JUMPDEST CALLVALUE PUSH2 0x16F JUMPI PUSH1 0x40 CALLDATASIZE PUSH1 0x3 NOT ADD SLT PUSH2 0x16F JUMPI PUSH2 0xE37 PUSH2 0x2165 JUMP JUMPDEST PUSH1 0x1 PUSH1 0x1 PUSH1 0xA0 SHL SUB AND PUSH1 0x0 SWAP1 DUP2 MSTORE PUSH1 0xB PUSH1 0x20 MSTORE PUSH1 0x40 SWAP1 KECCAK256 DUP1 SLOAD PUSH1 0x24 CALLDATALOAD SWAP2 SWAP1 DUP3 LT ISZERO PUSH2 0x16F JUMPI PUSH1 0x20 SWAP2 PUSH2 0xE68 SWAP2 PUSH2 0x22A1 JUMP JUMPDEST SWAP1 SLOAD PUSH1 0x40 MLOAD SWAP2 PUSH1 0x3 SHL SHR DUP2 MSTORE RETURN JUMPDEST CALLVALUE PUSH2 0x16F JUMPI PUSH1 0x20 CALLDATASIZE PUSH1 0x3 NOT ADD SLT PUSH2 0x16F JUMPI PUSH2 0xEB0 PUSH2 0xE95 PUSH1 0x4 CALLDATALOAD PUSH2 0x22CF JUMP JUMPDEST POP PUSH1 0x9 ADD SLOAD CALLER PUSH1 0x18 SWAP2 SWAP1 SWAP2 SHR PUSH1 0x1 PUSH1 0x1 PUSH1 0xA0 SHL SUB AND EQ PUSH2 0x2486 JUMP JUMPDEST PUSH2 0xECF PUSH1 0xFF PUSH1 0x9 PUSH2 0xEC2 PUSH1 0x4 CALLDATALOAD PUSH2 0x22CF JUMP JUMPDEST POP ADD SLOAD PUSH1 0x8 SHR AND ISZERO PUSH2 0x24DE JUMP JUMPDEST PUSH1 0x9 PUSH2 0xEDC PUSH1 0x4 CALLDATALOAD PUSH2 0x22CF JUMP JUMPDEST POP ADD DUP1 SLOAD PUSH2 0xFF00 NOT AND PUSH2 0x100 OR SWAP1 SSTORE PUSH1 0x5 PUSH2 0xEF8 PUSH1 0x4 CALLDATALOAD PUSH2 0x22CF JUMP JUMPDEST POP ADD SLOAD PUSH1 0x55 DUP2 MUL SWAP1 DUP1 DUP3 DIV PUSH1 0x55 EQ DUP2 ISZERO OR ISZERO PUSH2 0xFDA JUMPI PUSH1 0xC PUSH2 0xF1B PUSH1 0x4 CALLDATALOAD PUSH2 0x22CF JUMP JUMPDEST POP ADD SLOAD SWAP1 PUSH1 0x0 SWAP3 PUSH1 0x0 SWAP1 PUSH1 0x0 DUP1 SWAP2 PUSH1 0x0 SWAP1 JUMPDEST DUP7 DUP3 LT PUSH2 0x1140 JUMPI POP POP PUSH2 0xF5C SWAP3 SWAP2 PUSH2 0xF57 PUSH2 0xF57 SWAP3 PUSH1 0xA PUSH2 0xF4F PUSH1 0x4 CALLDATALOAD PUSH2 0x22CF JUMP JUMPDEST POP ADD SLOAD PUSH2 0x27F4 JUMP JUMPDEST PUSH2 0x27F4 JUMP JUMPDEST SWAP2 PUSH1 0x1 SWAP2 DUP4 PUSH1 0x1 SHR SWAP5 DUP1 ISZERO PUSH1 0x0 EQ PUSH2 0xFF0 JUMPI POP POP PUSH1 0x1 SLOAD PUSH1 0x0 SLOAD PUSH1 0x1 PUSH1 0x1 PUSH1 0xA0 SHL SUB SWAP2 DUP3 AND SWAP6 SWAP2 AND SWAP4 PUSH1 0x1 NOT AND SWAP3 POP DUP1 DUP4 DIV PUSH1 0x2 EQ SWAP1 ISZERO OR ISZERO SWAP1 POP PUSH2 0xFDA JUMPI PUSH1 0x40 MLOAD PUSH4 0xA9059CBB PUSH1 0xE0 SHL DUP2 MSTORE PUSH1 0x1 PUSH1 0x1 PUSH1 0xA0 SHL SUB SWAP3 SWAP1 SWAP3 AND PUSH1 0x4 DUP4 ADD MSTORE PUSH1 0x24 DUP3 ADD MSTORE SWAP1 PUSH1 0x20 SWAP1 DUP3 SWAP1 PUSH1 0x44 SWAP1 DUP3 SWAP1 PUSH1 0x0 SWAP1 GAS CALL DUP1 ISZERO PUSH2 0xB43 JUMPI PUSH2 0xB19 JUMPI STOP JUMPDEST PUSH4 0x4E487B71 PUSH1 0xE0 SHL PUSH1 0x0 MSTORE PUSH1 0x11 PUSH1 0x4 MSTORE PUSH1 0x24 PUSH1 0x0 REVERT JUMPDEST PUSH2 0xFFE SWAP2 SWAP3 SWAP4 SWAP5 POP DUP6 PUSH2 0x27D4 JUMP JUMPDEST SWAP1 PUSH1 0x0 JUMPDEST DUP4 DUP2 LT PUSH2 0x104F JUMPI POP POP PUSH1 0x1 SLOAD PUSH1 0x0 DUP1 SLOAD PUSH1 0x40 MLOAD PUSH4 0xA9059CBB PUSH1 0xE0 SHL DUP2 MSTORE PUSH1 0x1 PUSH1 0x1 PUSH1 0xA0 SHL SUB SWAP2 DUP3 AND PUSH1 0x4 DUP3 ADD MSTORE PUSH1 0x24 DUP2 ADD SWAP8 SWAP1 SWAP8 MSTORE PUSH1 0x20 SWAP6 POP DUP7 SWAP5 POP SWAP1 SWAP2 AND SWAP2 POP DUP3 SWAP1 DUP2 PUSH1 0x44 DUP2 ADD PUSH2 0xB09 JUMP JUMPDEST DUP5 SWAP1 PUSH1 0x4 CALLDATALOAD PUSH1 0x0 MSTORE PUSH1 0x6 PUSH1 0x20 MSTORE DUP4 PUSH1 0x40 PUSH1 0x0 KECCAK256 PUSH1 0x3 SWAP1 DUP2 PUSH1 0x20 MSTORE PUSH2 0x1077 DUP5 PUSH1 0x40 PUSH1 0x0 KECCAK256 PUSH2 0x22A1 JUMP JUMPDEST PUSH1 0x1 DUP1 PUSH1 0xA0 SHL SUB SWAP2 SLOAD SWAP1 DUP5 SHL SHR AND PUSH1 0x0 MSTORE PUSH1 0x20 MSTORE DUP5 PUSH1 0x40 PUSH1 0x0 KECCAK256 SLOAD EQ PUSH2 0x10A0 JUMPI JUMPDEST POP POP ADD PUSH2 0x1002 JUMP JUMPDEST PUSH2 0x1108 SWAP4 POP SWAP1 PUSH1 0x20 SWAP2 PUSH1 0x1 DUP1 PUSH1 0xA0 SHL SUB DUP10 SLOAD AND SWAP1 PUSH1 0x4 CALLDATALOAD PUSH1 0x0 MSTORE DUP1 DUP5 MSTORE PUSH2 0x10CB DUP6 PUSH1 0x40 PUSH1 0x0 KECCAK256 PUSH2 0x22A1 JUMP JUMPDEST SWAP1 SLOAD PUSH1 0x40 MLOAD PUSH4 0xA9059CBB PUSH1 0xE0 SHL DUP2 MSTORE PUSH1 0x1 PUSH1 0x1 PUSH1 0xA0 SHL SUB SWAP3 SWAP1 SWAP4 SHL SHR AND PUSH1 0x4 DUP3 ADD MSTORE PUSH1 0x24 DUP2 ADD SWAP3 SWAP1 SWAP3 MSTORE SWAP1 SWAP4 DUP5 SWAP2 SWAP1 DUP3 SWAP1 PUSH1 0x0 SWAP1 DUP3 SWAP1 PUSH1 0x44 DUP3 ADD SWAP1 JUMP JUMPDEST SUB SWAP3 GAS CALL SWAP2 DUP3 ISZERO PUSH2 0xB43 JUMPI DUP7 SWAP3 PUSH2 0x1121 JUMPI JUMPDEST DUP5 SWAP1 PUSH2 0x1098 JUMP JUMPDEST PUSH2 0x1139 SWAP1 PUSH1 0x20 RETURNDATASIZE PUSH1 0x20 GT PUSH2 0xB3C JUMPI PUSH2 0xB32 DUP2 DUP4 PUSH2 0x2197 JUMP JUMPDEST POP DUP8 PUSH2 0x111A JUMP JUMPDEST SWAP1 SWAP7 PUSH1 0x4 CALLDATALOAD PUSH1 0x0 MSTORE PUSH1 0x8 PUSH1 0x20 MSTORE PUSH1 0x40 PUSH1 0x0 KECCAK256 PUSH1 0x3 PUSH1 0x20 MSTORE PUSH2 0x1165 DUP10 PUSH1 0x40 PUSH1 0x0 KECCAK256 PUSH2 0x22A1 JUMP JUMPDEST PUSH1 0x1 DUP1 PUSH1 0xA0 SHL SUB SWAP2 SLOAD SWAP1 PUSH1 0x3 SHL SHR AND PUSH1 0x0 MSTORE PUSH1 0x20 MSTORE PUSH1 0x40 PUSH1 0x0 KECCAK256 SLOAD DUP7 DUP2 LT ISZERO PUSH1 0x0 EQ PUSH2 0x1286 JUMPI POP PUSH1 0x1 DUP2 ADD DUP2 GT PUSH2 0xFDA JUMPI PUSH1 0x1 PUSH2 0x124B SWAP2 ADD SWAP8 PUSH1 0x4 CALLDATALOAD PUSH1 0x0 MSTORE PUSH1 0x4 PUSH1 0x20 MSTORE PUSH1 0x40 PUSH1 0x0 KECCAK256 PUSH1 0x3 PUSH1 0x20 MSTORE PUSH2 0x11C1 DUP3 PUSH1 0x40 PUSH1 0x0 KECCAK256 PUSH2 0x22A1 JUMP JUMPDEST PUSH1 0x1 DUP1 PUSH1 0xA0 SHL SUB SWAP2 SLOAD SWAP1 PUSH1 0x3 SHL SHR AND PUSH1 0x0 MSTORE PUSH1 0x20 MSTORE PUSH1 0x20 PUSH2 0x11E8 PUSH1 0x40 PUSH1 0x0 KECCAK256 SLOAD DUP1 SWAP9 PUSH2 0x25AB JUMP JUMPDEST SWAP7 PUSH1 0x1 DUP1 PUSH1 0xA0 SHL SUB PUSH1 0x1 SLOAD AND PUSH1 0x4 CALLDATALOAD PUSH1 0x0 MSTORE PUSH1 0x3 DUP4 MSTORE PUSH2 0x120C DUP5 PUSH1 0x40 PUSH1 0x0 KECCAK256 PUSH2 0x22A1 JUMP JUMPDEST SWAP1 SLOAD PUSH1 0x40 MLOAD PUSH4 0xA9059CBB PUSH1 0xE0 SHL DUP2 MSTORE PUSH1 0x3 SWAP3 SWAP1 SWAP3 SHL SHR PUSH1 0x1 PUSH1 0x1 PUSH1 0xA0 SHL SUB AND PUSH1 0x4 DUP3 ADD MSTORE PUSH1 0x24 DUP2 ADD SWAP3 SWAP1 SWAP3 MSTORE SWAP1 SWAP4 DUP5 SWAP2 SWAP1 DUP3 SWAP1 PUSH1 0x0 SWAP1 DUP3 SWAP1 PUSH1 0x44 DUP3 ADD SWAP1 JUMP JUMPDEST SUB SWAP3 GAS CALL SWAP2 DUP3 ISZERO PUSH2 0xB43 JUMPI PUSH1 0x1 SWAP3 PUSH2 0x1267 JUMPI JUMPDEST POP JUMPDEST ADD SWAP1 PUSH2 0xF2D JUMP JUMPDEST PUSH2 0x127F SWAP1 PUSH1 0x20 RETURNDATASIZE PUSH1 0x20 GT PUSH2 0xB3C JUMPI PUSH2 0xB32 DUP2 DUP4 PUSH2 0x2197 JUMP JUMPDEST POP DUP10 PUSH2 0x125E JUMP JUMPDEST SWAP1 SWAP8 DUP2 PUSH1 0x64 DUP5 DIV GT ISZERO DUP1 PUSH2 0x13D2 JUMPI JUMPDEST ISZERO PUSH2 0x1345 JUMPI PUSH2 0x130D SWAP2 POP PUSH1 0x4 CALLDATALOAD PUSH1 0x0 MSTORE PUSH1 0x4 PUSH1 0x20 MSTORE PUSH1 0x40 PUSH1 0x0 KECCAK256 PUSH1 0x3 PUSH1 0x20 MSTORE PUSH2 0x12C2 DUP3 PUSH1 0x40 PUSH1 0x0 KECCAK256 PUSH2 0x22A1 JUMP JUMPDEST PUSH1 0x1 DUP1 PUSH1 0xA0 SHL SUB SWAP2 SLOAD SWAP1 PUSH1 0x3 SHL SHR AND PUSH1 0x0 MSTORE PUSH1 0x20 MSTORE PUSH1 0x20 PUSH2 0x12E9 PUSH1 0x40 PUSH1 0x0 KECCAK256 SLOAD DUP1 SWAP7 PUSH2 0x25AB JUMP JUMPDEST SWAP5 PUSH1 0x1 DUP1 PUSH1 0xA0 SHL SUB PUSH1 0x1 SLOAD AND PUSH1 0x4 CALLDATALOAD PUSH1 0x0 MSTORE PUSH1 0x3 DUP4 MSTORE PUSH2 0x120C DUP5 PUSH1 0x40 PUSH1 0x0 KECCAK256 PUSH2 0x22A1 JUMP JUMPDEST SUB SWAP3 GAS CALL SWAP2 DUP3 ISZERO PUSH2 0xB43 JUMPI PUSH1 0x1 SWAP3 PUSH2 0x1326 JUMPI JUMPDEST POP PUSH2 0x1260 JUMP JUMPDEST PUSH2 0x133E SWAP1 PUSH1 0x20 RETURNDATASIZE PUSH1 0x20 GT PUSH2 0xB3C JUMPI PUSH2 0xB32 DUP2 DUP4 PUSH2 0x2197 JUMP JUMPDEST POP DUP10 PUSH2 0x1320 JUMP JUMPDEST PUSH1 0x4 CALLDATALOAD PUSH1 0x0 MSTORE PUSH1 0x4 PUSH1 0x20 MSTORE PUSH1 0x40 PUSH1 0x0 KECCAK256 PUSH1 0x3 PUSH1 0x20 MSTORE PUSH2 0x1368 DUP3 PUSH1 0x40 PUSH1 0x0 KECCAK256 PUSH2 0x22A1 JUMP JUMPDEST PUSH1 0x1 DUP1 PUSH1 0xA0 SHL SUB SWAP2 SLOAD SWAP1 PUSH1 0x3 SHL SHR AND PUSH1 0x0 MSTORE PUSH1 0x20 MSTORE PUSH1 0x40 PUSH1 0x0 KECCAK256 SLOAD SWAP2 DUP3 DUP2 DUP2 MUL DIV DUP2 EQ DUP4 ISZERO OR ISZERO PUSH2 0xFDA JUMPI PUSH2 0x13AE PUSH2 0x13A7 DUP10 PUSH1 0x20 SWAP4 PUSH2 0x130D SWAP7 MUL PUSH2 0x27D4 JUMP JUMPDEST DUP1 SWAP8 PUSH2 0x25AB JUMP JUMPDEST SWAP6 PUSH1 0x1 DUP1 PUSH1 0xA0 SHL SUB PUSH1 0x1 SLOAD AND PUSH1 0x4 CALLDATALOAD PUSH1 0x0 MSTORE PUSH1 0x3 DUP4 MSTORE PUSH2 0x120C DUP5 PUSH1 0x40 PUSH1 0x0 KECCAK256 PUSH2 0x22A1 JUMP JUMPDEST POP DUP7 DUP3 LT PUSH2 0x1295 JUMP JUMPDEST CALLVALUE PUSH2 0x16F JUMPI PUSH1 0x0 CALLDATASIZE PUSH1 0x3 NOT ADD SLT PUSH2 0x16F JUMPI PUSH1 0x0 SLOAD PUSH1 0x40 MLOAD PUSH1 0x1 PUSH1 0x1 PUSH1 0xA0 SHL SUB SWAP1 SWAP2 AND DUP2 MSTORE PUSH1 0x20 SWAP1 RETURN JUMPDEST CALLVALUE PUSH2 0x16F JUMPI PUSH2 0x1412 CALLDATASIZE PUSH2 0x2277 JUMP JUMPDEST SWAP2 PUSH1 0x0 MSTORE PUSH1 0x7 PUSH1 0x20 MSTORE PUSH1 0x40 PUSH1 0x0 KECCAK256 SWAP1 PUSH1 0x1 DUP1 PUSH1 0xA0 SHL SUB AND PUSH1 0x0 MSTORE PUSH1 0x20 MSTORE PUSH1 0x40 PUSH1 0x0 KECCAK256 SWAP1 DUP2 SLOAD DUP2 LT ISZERO PUSH2 0x16F JUMPI PUSH2 0x1447 SWAP2 PUSH2 0x22A1 JUMP JUMPDEST PUSH2 0xBFB JUMPI PUSH2 0x1457 PUSH2 0x1D0 SWAP2 PUSH2 0x2344 JUMP JUMPDEST PUSH1 0x40 MLOAD SWAP2 DUP3 SWAP2 PUSH1 0x20 DUP4 MSTORE PUSH1 0x20 DUP4 ADD SWAP1 PUSH2 0x23E9 JUMP JUMPDEST CALLVALUE PUSH2 0x16F JUMPI PUSH2 0x1479 CALLDATASIZE PUSH2 0x21CF JUMP JUMPDEST SWAP1 PUSH1 0x0 MSTORE PUSH1 0x3 PUSH1 0x20 MSTORE PUSH1 0x40 PUSH1 0x0 KECCAK256 DUP1 SLOAD DUP3 LT ISZERO PUSH2 0x16F JUMPI PUSH1 0x20 SWAP2 PUSH2 0x149C SWAP2 PUSH2 0x22A1 JUMP JUMPDEST SWAP1 SLOAD PUSH1 0x40 MLOAD PUSH1 0x3 SWAP3 SWAP1 SWAP3 SHL SHR PUSH1 0x1 PUSH1 0x1 PUSH1 0xA0 SHL SUB AND DUP2 MSTORE RETURN JUMPDEST CALLVALUE PUSH2 0x16F JUMPI PUSH1 0x20 DUP1 PUSH1 0x3 NOT CALLDATASIZE ADD SLT PUSH2 0x16F JUMPI PUSH1 0x4 CALLDATALOAD DUP1 PUSH1 0x0 MSTORE PUSH1 0x5 DUP3 MSTORE PUSH1 0x40 PUSH1 0x0 KECCAK256 CALLER PUSH1 0x0 MSTORE DUP3 MSTORE PUSH2 0x14F3 PUSH1 0x1 PUSH1 0xFF PUSH1 0x40 PUSH1 0x0 KECCAK256 SLOAD AND ISZERO ISZERO EQ PUSH2 0x265D JUMP JUMPDEST PUSH1 0x0 MSTORE PUSH1 0x4 DUP2 MSTORE PUSH1 0x40 PUSH1 0x0 KECCAK256 CALLER PUSH1 0x0 MSTORE DUP2 MSTORE PUSH1 0x40 PUSH1 0x0 KECCAK256 SLOAD PUSH1 0x40 MLOAD SWAP1 DUP2 MSTORE RETURN JUMPDEST CALLVALUE PUSH2 0x16F JUMPI PUSH1 0x40 CALLDATASIZE PUSH1 0x3 NOT ADD SLT PUSH2 0x16F JUMPI PUSH2 0x152C PUSH2 0x214F JUMP JUMPDEST PUSH1 0x4 CALLDATALOAD PUSH1 0x0 MSTORE PUSH1 0x5 PUSH1 0x20 MSTORE PUSH1 0x40 PUSH1 0x0 KECCAK256 SWAP1 PUSH1 0x1 DUP1 PUSH1 0xA0 SHL SUB AND PUSH1 0x0 MSTORE PUSH1 0x20 MSTORE PUSH1 0x20 PUSH1 0xFF PUSH1 0x40 PUSH1 0x0 KECCAK256 SLOAD AND PUSH1 0x40 MLOAD SWAP1 ISZERO ISZERO DUP2 MSTORE RETURN JUMPDEST CALLVALUE PUSH2 0x16F JUMPI PUSH1 0x40 CALLDATASIZE PUSH1 0x3 NOT ADD SLT PUSH2 0x16F JUMPI PUSH2 0x1579 PUSH2 0x2165 JUMP JUMPDEST PUSH1 0x1 PUSH1 0x1 PUSH1 0xA0 SHL SUB AND PUSH1 0x0 SWAP1 DUP2 MSTORE PUSH1 0xA PUSH1 0x20 MSTORE PUSH1 0x40 SWAP1 KECCAK256 DUP1 SLOAD PUSH1 0x24 CALLDATALOAD SWAP2 SWAP1 DUP3 LT ISZERO PUSH2 0x16F JUMPI PUSH1 0x20 SWAP2 PUSH2 0xE68 SWAP2 PUSH2 0x22A1 JUMP JUMPDEST CALLVALUE PUSH2 0x16F JUMPI PUSH1 0x20 CALLDATASIZE PUSH1 0x3 NOT ADD SLT PUSH2 0x16F JUMPI PUSH1 0x4 CALLDATALOAD PUSH1 0x2 SLOAD DUP2 LT ISZERO PUSH2 0x16F JUMPI PUSH2 0x15D1 SWAP1 PUSH2 0x22CF JUMP JUMPDEST POP DUP1 SLOAD SWAP1 PUSH2 0x15E1 PUSH1 0x1 DUP3 ADD PUSH2 0x2344 JUMP JUMPDEST PUSH1 0xA0 MSTORE PUSH2 0x15F0 PUSH1 0x2 DUP3 ADD PUSH2 0x2344 JUMP JUMPDEST PUSH1 0xE0 MSTORE PUSH2 0x15FF PUSH1 0x3 DUP3 ADD PUSH2 0x2344 JUMP JUMPDEST PUSH2 0x160B PUSH1 0x4 DUP4 ADD PUSH2 0x2344 JUMP JUMPDEST SWAP1 PUSH1 0x5 DUP4 ADD SLOAD SWAP2 PUSH1 0x6 DUP5 ADD SLOAD PUSH1 0x7 DUP6 ADD SLOAD PUSH1 0x8 DUP7 ADD SLOAD PUSH1 0x9 DUP8 ADD SLOAD SWAP1 PUSH1 0xA DUP9 ADD SLOAD SWAP3 PUSH1 0xB DUP10 ADD SLOAD SWAP5 PUSH1 0xC DUP11 ADD SLOAD SWAP7 PUSH1 0xD DUP12 ADD SLOAD SWAP9 PUSH1 0xF DUP13 ADD PUSH2 0x164C SWAP1 PUSH2 0x2344 JUMP JUMPDEST SWAP12 PUSH1 0x10 DUP2 ADD SLOAD PUSH1 0x80 MSTORE PUSH1 0x11 ADD SLOAD SWAP13 PUSH1 0x40 MLOAD PUSH1 0xC0 MSTORE PUSH2 0x280 SWAP1 PUSH1 0xC0 MLOAD MSTORE DUP1 PUSH1 0xC0 MLOAD PUSH1 0x20 ADD MSTORE PUSH1 0xC0 MLOAD ADD PUSH1 0xA0 MLOAD SWAP1 PUSH2 0x1681 SWAP2 PUSH2 0x23E9 JUMP JUMPDEST PUSH1 0xC0 MLOAD DUP2 SUB PUSH1 0xC0 MLOAD PUSH1 0x40 ADD MSTORE PUSH1 0xE0 MLOAD SWAP1 PUSH2 0x169A SWAP2 PUSH2 0x23E9 JUMP JUMPDEST PUSH1 0xC0 MLOAD DUP2 SUB PUSH1 0xC0 MLOAD PUSH1 0x60 ADD MSTORE PUSH2 0x16AF SWAP2 PUSH2 0x23E9 JUMP JUMPDEST PUSH1 0xC0 MLOAD DUP2 SUB PUSH1 0xC0 MLOAD PUSH1 0x80 ADD MSTORE PUSH2 0x16C4 SWAP2 PUSH2 0x23E9 JUMP JUMPDEST SWAP9 PUSH1 0xC0 MLOAD PUSH1 0xA0 ADD MSTORE PUSH1 0xC0 MLOAD PUSH1 0xC0 ADD MSTORE PUSH1 0xC0 MLOAD PUSH1 0xE0 ADD MSTORE PUSH1 0xC0 MLOAD PUSH2 0x100 ADD MSTORE PUSH1 0xFF DUP2 AND ISZERO ISZERO PUSH1 0xC0 MLOAD PUSH2 0x120 ADD MSTORE DUP1 PUSH1 0x8 SHR PUSH1 0xFF AND ISZERO ISZERO PUSH1 0xC0 MLOAD PUSH2 0x140 ADD MSTORE DUP1 PUSH1 0x10 SHR PUSH1 0xFF AND ISZERO ISZERO PUSH1 0xC0 MLOAD PUSH2 0x160 ADD MSTORE PUSH1 0x1 PUSH1 0xA0 SHL PUSH1 0x1 SWAP1 SUB SWAP1 PUSH1 0x18 SHR AND PUSH1 0xC0 MLOAD PUSH2 0x180 ADD MSTORE PUSH1 0xC0 MLOAD PUSH2 0x1A0 ADD MSTORE PUSH1 0xC0 MLOAD PUSH2 0x1C0 ADD MSTORE PUSH1 0xC0 MLOAD PUSH2 0x1E0 ADD MSTORE PUSH1 0xC0 MLOAD PUSH2 0x200 ADD MSTORE PUSH1 0xC0 MLOAD DUP2 SUB PUSH1 0xC0 MLOAD PUSH2 0x220 ADD MSTORE PUSH2 0x175E SWAP2 PUSH2 0x23E9 JUMP JUMPDEST SWAP1 PUSH1 0x80 MLOAD PUSH1 0xC0 MLOAD PUSH2 0x240 ADD MSTORE PUSH1 0xC0 MLOAD PUSH2 0x260 ADD MSTORE PUSH1 0xC0 MLOAD SWAP1 SUB PUSH1 0xC0 MLOAD RETURN JUMPDEST CALLVALUE PUSH2 0x16F JUMPI PUSH1 0x0 CALLDATASIZE PUSH1 0x3 NOT ADD SLT PUSH2 0x16F JUMPI CALLER PUSH1 0x0 MSTORE PUSH1 0x20 PUSH1 0xA PUSH1 0x20 MSTORE PUSH1 0x40 PUSH1 0x0 KECCAK256 SWAP1 PUSH1 0x40 MLOAD SWAP1 DUP2 PUSH1 0x20 DUP5 SLOAD SWAP2 DUP3 DUP2 MSTORE ADD SWAP4 PUSH1 0x0 MSTORE PUSH1 0x20 PUSH1 0x0 KECCAK256 SWAP2 PUSH1 0x0 SWAP1 JUMPDEST DUP3 DUP3 LT PUSH2 0x17D1 JUMPI PUSH2 0x1D0 DUP6 PUSH2 0x2B9 DUP2 DUP10 SUB DUP3 PUSH2 0x2197 JUMP JUMPDEST DUP4 SLOAD DUP7 MSTORE SWAP5 DUP6 ADD SWAP5 PUSH1 0x1 SWAP4 DUP5 ADD SWAP4 SWAP1 SWAP2 ADD SWAP1 PUSH2 0x17BA JUMP JUMPDEST CALLVALUE PUSH2 0x16F JUMPI PUSH2 0x17F6 CALLDATASIZE PUSH2 0x2277 JUMP JUMPDEST SWAP2 PUSH1 0x0 MSTORE PUSH1 0x9 PUSH1 0x20 MSTORE PUSH1 0x40 PUSH1 0x0 KECCAK256 SWAP1 PUSH1 0x1 DUP1 PUSH1 0xA0 SHL SUB AND PUSH1 0x0 MSTORE PUSH1 0x20 MSTORE PUSH1 0x40 PUSH1 0x0 KECCAK256 DUP1 SLOAD DUP3 LT ISZERO PUSH2 0x16F JUMPI PUSH1 0x20 SWAP2 PUSH2 0xE68 SWAP2 PUSH2 0x22A1 JUMP JUMPDEST CALLVALUE PUSH2 0x16F JUMPI PUSH1 0x40 CALLDATASIZE PUSH1 0x3 NOT ADD SLT PUSH2 0x16F JUMPI PUSH1 0x4 CALLDATALOAD PUSH1 0x24 CALLDATALOAD PUSH1 0x1 PUSH1 0x1 PUSH1 0x40 SHL SUB DUP2 GT PUSH2 0x16F JUMPI PUSH2 0x1860 SWAP1 CALLDATASIZE SWAP1 PUSH1 0x4 ADD PUSH2 0x2221 JUMP JUMPDEST SWAP1 DUP1 PUSH1 0x0 MSTORE PUSH1 0x20 SWAP2 PUSH1 0x5 DUP4 MSTORE PUSH1 0x40 PUSH1 0x0 KECCAK256 CALLER PUSH1 0x0 MSTORE DUP4 MSTORE PUSH2 0x188D PUSH1 0x1 PUSH1 0xFF PUSH1 0x40 PUSH1 0x0 KECCAK256 SLOAD AND ISZERO ISZERO EQ PUSH2 0x265D JUMP JUMPDEST PUSH2 0x189D PUSH1 0xFF PUSH1 0x9 PUSH2 0xEC2 DUP6 PUSH2 0x22CF JUMP JUMPDEST PUSH2 0x18BB PUSH1 0x1 PUSH1 0xFF PUSH1 0x9 PUSH2 0x18AF DUP7 PUSH2 0x22CF JUMP JUMPDEST POP ADD SLOAD AND ISZERO ISZERO EQ PUSH2 0x252A JUMP JUMPDEST DUP2 PUSH1 0x0 MSTORE PUSH1 0x6 DUP4 MSTORE PUSH1 0x40 PUSH1 0x0 KECCAK256 CALLER PUSH1 0x0 MSTORE DUP4 MSTORE PUSH1 0x40 PUSH1 0x0 KECCAK256 SLOAD PUSH1 0x5 PUSH2 0x18DF DUP5 PUSH2 0x22CF JUMP JUMPDEST POP ADD SLOAD GT ISZERO PUSH2 0x1955 JUMPI DUP2 PUSH1 0x0 MSTORE PUSH1 0x7 DUP4 MSTORE PUSH1 0x40 PUSH1 0x0 KECCAK256 CALLER PUSH1 0x0 MSTORE DUP4 MSTORE PUSH1 0x40 PUSH1 0x0 KECCAK256 DUP1 SLOAD PUSH1 0x1 PUSH1 0x40 SHL DUP2 LT ISZERO PUSH2 0xBE5 JUMPI PUSH2 0x191D SWAP2 PUSH1 0x1 DUP3 ADD DUP2 SSTORE PUSH2 0x22A1 JUMP JUMPDEST SWAP2 SWAP1 SWAP2 PUSH2 0xBFB JUMPI PUSH2 0x192D SWAP2 PUSH2 0x26CF JUMP JUMPDEST PUSH1 0x0 MSTORE PUSH1 0x6 DUP2 MSTORE PUSH1 0x40 PUSH1 0x0 KECCAK256 SWAP1 CALLER PUSH1 0x0 MSTORE MSTORE PUSH1 0x40 PUSH1 0x0 KECCAK256 DUP1 SLOAD SWAP1 PUSH1 0x1 DUP3 ADD DUP1 SWAP3 GT PUSH2 0xFDA JUMPI SSTORE STOP JUMPDEST PUSH1 0x40 MLOAD PUSH3 0x461BCD PUSH1 0xE5 SHL DUP2 MSTORE PUSH1 0x4 DUP2 ADD DUP5 SWAP1 MSTORE PUSH1 0x32 PUSH1 0x24 DUP3 ADD MSTORE PUSH32 0x596F752068617665207265616368656420746865206D6178696D756D206E756D PUSH1 0x44 DUP3 ADD MSTORE PUSH18 0x626572206F66206672657175656E63696573 PUSH1 0x70 SHL PUSH1 0x64 DUP3 ADD MSTORE PUSH1 0x84 SWAP1 REVERT JUMPDEST CALLVALUE PUSH2 0x16F JUMPI PUSH1 0x20 DUP1 PUSH1 0x3 NOT CALLDATASIZE ADD SLT PUSH2 0x16F JUMPI PUSH1 0x4 CALLDATALOAD DUP1 PUSH1 0x0 MSTORE PUSH1 0x5 DUP3 MSTORE PUSH1 0x40 PUSH1 0x0 KECCAK256 CALLER PUSH1 0x0 MSTORE DUP3 MSTORE PUSH2 0x19F3 PUSH1 0x1 PUSH1 0xFF PUSH1 0x40 PUSH1 0x0 KECCAK256 SLOAD AND ISZERO ISZERO EQ PUSH2 0x265D JUMP JUMPDEST PUSH1 0x0 MSTORE PUSH1 0x8 DUP2 MSTORE PUSH1 0x40 PUSH1 0x0 KECCAK256 CALLER PUSH1 0x0 MSTORE DUP2 MSTORE PUSH1 0x40 PUSH1 0x0 KECCAK256 SLOAD PUSH1 0x40 MLOAD SWAP1 DUP2 MSTORE RETURN JUMPDEST CALLVALUE PUSH2 0x16F JUMPI PUSH1 0x40 CALLDATASIZE PUSH1 0x3 NOT ADD SLT PUSH2 0x16F JUMPI PUSH2 0x1A2C PUSH2 0x214F JUMP JUMPDEST PUSH1 0x4 CALLDATALOAD PUSH1 0x0 MSTORE PUSH1 0x6 PUSH1 0x20 MSTORE PUSH1 0x40 PUSH1 0x0 KECCAK256 SWAP1 PUSH1 0x1 DUP1 PUSH1 0xA0 SHL SUB AND PUSH1 0x0 MSTORE PUSH1 0x20 MSTORE PUSH1 0x20 PUSH1 0x40 PUSH1 0x0 KECCAK256 SLOAD PUSH1 0x40 MLOAD SWAP1 DUP2 MSTORE RETURN JUMPDEST CALLVALUE PUSH2 0x16F JUMPI PUSH1 0x40 CALLDATASIZE PUSH1 0x3 NOT ADD SLT PUSH2 0x16F JUMPI PUSH2 0x1A74 PUSH2 0x214F JUMP JUMPDEST PUSH1 0x4 CALLDATALOAD PUSH1 0x0 MSTORE PUSH1 0x20 SWAP1 PUSH1 0x9 PUSH1 0x20 MSTORE PUSH1 0x40 PUSH1 0x0 KECCAK256 SWAP1 PUSH1 0x1 DUP1 PUSH1 0xA0 SHL SUB AND PUSH1 0x0 MSTORE PUSH1 0x20 MSTORE PUSH1 0x40 PUSH1 0x0 KECCAK256 SWAP1 PUSH1 0x40 MLOAD SWAP1 DUP2 PUSH1 0x20 DUP5 SLOAD SWAP2 DUP3 DUP2 MSTORE ADD SWAP4 PUSH1 0x0 MSTORE PUSH1 0x20 PUSH1 0x0 KECCAK256 SWAP2 PUSH1 0x0 SWAP1 JUMPDEST DUP3 DUP3 LT PUSH2 0x1ACF JUMPI PUSH2 0x1D0 DUP6 PUSH2 0x2B9 DUP2 DUP10 SUB DUP3 PUSH2 0x2197 JUMP JUMPDEST DUP4 SLOAD DUP7 MSTORE SWAP5 DUP6 ADD SWAP5 PUSH1 0x1 SWAP4 DUP5 ADD SWAP4 SWAP1 SWAP2 ADD SWAP1 PUSH2 0x1AB8 JUMP JUMPDEST CALLVALUE PUSH2 0x16F JUMPI PUSH1 0x20 CALLDATASIZE PUSH1 0x3 NOT ADD SLT PUSH2 0x16F JUMPI PUSH1 0x4 CALLDATALOAD PUSH2 0x1B06 PUSH2 0xE95 DUP3 PUSH2 0x22CF JUMP JUMPDEST PUSH2 0x1B20 PUSH1 0xFF PUSH1 0x9 PUSH2 0x1B16 DUP5 PUSH2 0x22CF JUMP JUMPDEST POP ADD SLOAD AND ISZERO PUSH2 0x25F9 JUMP JUMPDEST PUSH1 0xC PUSH2 0x1B2B DUP3 PUSH2 0x22CF JUMP JUMPDEST POP ADD SLOAD ISZERO PUSH2 0x1B4D JUMPI PUSH2 0x1B3E PUSH1 0x9 SWAP2 PUSH2 0x22CF JUMP JUMPDEST POP ADD DUP1 SLOAD PUSH1 0xFF NOT AND PUSH1 0x1 OR SWAP1 SSTORE STOP JUMPDEST PUSH1 0x40 MLOAD PUSH3 0x461BCD PUSH1 0xE5 SHL DUP2 MSTORE PUSH1 0x20 PUSH1 0x4 DUP3 ADD MSTORE PUSH1 0x1C PUSH1 0x24 DUP3 ADD MSTORE PUSH32 0x4E6F207061727469636970616E747320696E207468697320676F616C00000000 PUSH1 0x44 DUP3 ADD MSTORE PUSH1 0x64 SWAP1 REVERT JUMPDEST CALLVALUE PUSH2 0x16F JUMPI PUSH2 0x1BA0 CALLDATASIZE PUSH2 0x21CF JUMP JUMPDEST SWAP1 PUSH1 0x6 PUSH2 0x1BAC DUP3 PUSH2 0x22CF JUMP JUMPDEST POP ADD SLOAD DUP3 LT PUSH2 0x1E53 JUMPI PUSH1 0x1 SLOAD PUSH1 0x40 MLOAD PUSH4 0x70A08231 PUSH1 0xE0 SHL DUP2 MSTORE CALLER PUSH1 0x4 DUP3 ADD MSTORE PUSH1 0x1 PUSH1 0x1 PUSH1 0xA0 SHL SUB SWAP4 PUSH1 0x20 SWAP3 SWAP1 SWAP2 SWAP1 DUP4 SWAP1 DUP3 SWAP1 PUSH1 0x24 SWAP1 DUP3 SWAP1 DUP10 AND GAS STATICCALL DUP1 ISZERO PUSH2 0xB43 JUMPI DUP3 SWAP1 PUSH1 0x0 SWAP1 PUSH2 0x1E22 JUMPI JUMPDEST PUSH2 0x1C03 SWAP3 POP LT ISZERO PUSH2 0x25B8 JUMP JUMPDEST PUSH1 0xC PUSH2 0x1C0E DUP5 PUSH2 0x22CF JUMP JUMPDEST POP ADD SLOAD PUSH1 0xD PUSH2 0x1C1C DUP6 PUSH2 0x22CF JUMP JUMPDEST POP ADD SLOAD GT ISZERO PUSH2 0x1DEE JUMPI PUSH2 0x1C35 PUSH1 0xFF PUSH1 0x9 PUSH2 0xEC2 DUP7 PUSH2 0x22CF JUMP JUMPDEST DUP3 PUSH1 0x0 MSTORE PUSH1 0x5 DUP3 MSTORE PUSH1 0x40 PUSH1 0x0 KECCAK256 CALLER PUSH1 0x0 MSTORE DUP3 MSTORE PUSH1 0xFF PUSH1 0x40 PUSH1 0x0 KECCAK256 SLOAD AND PUSH2 0x1D9E JUMPI PUSH2 0x1C65 PUSH1 0xFF PUSH1 0x9 PUSH2 0x1B16 DUP7 PUSH2 0x22CF JUMP JUMPDEST DUP3 PUSH1 0x0 MSTORE PUSH1 0x4 DUP3 MSTORE PUSH1 0x40 PUSH1 0x0 KECCAK256 CALLER PUSH1 0x0 MSTORE DUP3 MSTORE DUP1 PUSH1 0x40 PUSH1 0x0 KECCAK256 SSTORE PUSH1 0xA PUSH2 0x1C8A DUP5 PUSH2 0x22CF JUMP JUMPDEST POP ADD PUSH2 0x1C97 DUP3 DUP3 SLOAD PUSH2 0x25AB JUMP JUMPDEST SWAP1 SSTORE PUSH1 0xC PUSH2 0x1CA4 DUP5 PUSH2 0x22CF JUMP JUMPDEST POP ADD DUP1 SLOAD SWAP1 PUSH1 0x1 DUP3 ADD DUP1 SWAP3 GT PUSH2 0xFDA JUMPI SSTORE DUP3 PUSH1 0x0 MSTORE PUSH1 0x3 DUP3 MSTORE PUSH1 0x40 PUSH1 0x0 KECCAK256 SWAP1 DUP2 SLOAD SWAP1 PUSH1 0x1 PUSH1 0x40 SHL DUP3 LT ISZERO PUSH2 0xBE5 JUMPI PUSH1 0x0 SWAP6 PUSH2 0x1CE9 DUP4 DUP7 SWAP6 PUSH1 0x1 PUSH2 0x1D5A SWAP7 ADD DUP2 SSTORE PUSH2 0x22A1 JUMP JUMPDEST DUP2 SLOAD SWAP1 PUSH1 0x3 SHL SWAP1 DUP4 CALLER DUP4 SHL SWAP3 SHL NOT AND OR SWAP1 SSTORE DUP6 DUP8 MSTORE PUSH1 0x5 DUP5 MSTORE PUSH1 0x40 DUP8 KECCAK256 CALLER DUP9 MSTORE DUP5 MSTORE PUSH1 0x40 DUP8 KECCAK256 PUSH1 0x1 PUSH1 0xFF NOT DUP3 SLOAD AND OR SWAP1 SSTORE PUSH1 0x1 SLOAD AND SWAP1 PUSH1 0x40 MLOAD SWAP7 DUP8 DUP1 SWAP5 DUP2 SWAP4 PUSH4 0x23B872DD PUSH1 0xE0 SHL DUP4 MSTORE ADDRESS CALLER PUSH1 0x4 DUP6 ADD PUSH1 0x40 SWAP2 SWAP5 SWAP4 SWAP3 SWAP5 PUSH1 0x60 DUP3 ADD SWAP6 PUSH1 0x1 DUP1 PUSH1 0xA0 SHL SUB DUP1 SWAP3 AND DUP4 MSTORE AND PUSH1 0x20 DUP3 ADD MSTORE ADD MSTORE JUMP JUMPDEST SUB SWAP3 GAS CALL SWAP1 DUP2 ISZERO PUSH2 0xB43 JUMPI PUSH2 0xB3A SWAP4 PUSH1 0xB SWAP3 PUSH2 0x1D81 JUMPI JUMPDEST POP CALLER PUSH1 0x0 MSTORE MSTORE PUSH1 0x40 PUSH1 0x0 KECCAK256 PUSH2 0x2576 JUMP JUMPDEST PUSH2 0x1D97 SWAP1 DUP3 RETURNDATASIZE DUP5 GT PUSH2 0xB3C JUMPI PUSH2 0xB32 DUP2 DUP4 PUSH2 0x2197 JUMP JUMPDEST POP DUP5 PUSH2 0x1D71 JUMP JUMPDEST PUSH1 0x40 MLOAD PUSH3 0x461BCD PUSH1 0xE5 SHL DUP2 MSTORE PUSH1 0x4 DUP2 ADD DUP4 SWAP1 MSTORE PUSH1 0x22 PUSH1 0x24 DUP3 ADD MSTORE PUSH32 0x596F75206861766520616C726561647920656E7465726564207468697320676F PUSH1 0x44 DUP3 ADD MSTORE PUSH2 0x185B PUSH1 0xF2 SHL PUSH1 0x64 DUP3 ADD MSTORE PUSH1 0x84 SWAP1 REVERT JUMPDEST PUSH1 0x40 MLOAD PUSH3 0x461BCD PUSH1 0xE5 SHL DUP2 MSTORE PUSH1 0x4 DUP2 ADD DUP4 SWAP1 MSTORE PUSH1 0xC PUSH1 0x24 DUP3 ADD MSTORE PUSH12 0x11DBD85B081A5CC8199D5B1B PUSH1 0xA2 SHL PUSH1 0x44 DUP3 ADD MSTORE PUSH1 0x64 SWAP1 REVERT JUMPDEST POP POP DUP3 DUP2 DUP2 RETURNDATASIZE DUP4 GT PUSH2 0x1E4C JUMPI JUMPDEST PUSH2 0x1E39 DUP2 DUP4 PUSH2 0x2197 JUMP JUMPDEST DUP2 ADD SUB SLT PUSH2 0x16F JUMPI DUP2 PUSH2 0x1C03 SWAP2 MLOAD PUSH2 0x1BF7 JUMP JUMPDEST POP RETURNDATASIZE PUSH2 0x1E2F JUMP JUMPDEST PUSH1 0x40 MLOAD PUSH3 0x461BCD PUSH1 0xE5 SHL DUP2 MSTORE PUSH1 0x20 PUSH1 0x4 DUP3 ADD MSTORE PUSH1 0x24 DUP1 DUP3 ADD MSTORE PUSH32 0x426574206D7573742062652067726561746572207468616E206D696E696D756D PUSH1 0x44 DUP3 ADD MSTORE PUSH4 0x818995D PUSH1 0xE2 SHL PUSH1 0x64 DUP3 ADD MSTORE PUSH1 0x84 SWAP1 REVERT JUMPDEST CALLVALUE PUSH2 0x16F JUMPI PUSH1 0x80 CALLDATASIZE PUSH1 0x3 NOT ADD SLT PUSH2 0x16F JUMPI PUSH1 0x4 CALLDATALOAD PUSH2 0x1EC0 PUSH2 0x214F JUMP JUMPDEST SWAP1 PUSH1 0x64 CALLDATALOAD SWAP1 PUSH1 0x1 PUSH1 0x1 PUSH1 0x40 SHL SUB DUP3 GT PUSH2 0x16F JUMPI CALLDATASIZE PUSH1 0x23 DUP4 ADD SLT ISZERO PUSH2 0x16F JUMPI DUP2 PUSH1 0x4 ADD CALLDATALOAD PUSH1 0x24 PUSH2 0x1EEE DUP3 PUSH2 0x21B8 JUMP JUMPDEST SWAP1 PUSH2 0x1EFC PUSH1 0x40 MLOAD SWAP3 DUP4 PUSH2 0x2197 JUMP JUMPDEST DUP3 DUP3 MSTORE PUSH1 0x20 SWAP5 DUP6 DUP4 ADD PUSH1 0x24 PUSH1 0x5 SWAP6 PUSH1 0x5 SHL DUP4 ADD ADD SWAP2 CALLDATASIZE DUP4 GT PUSH2 0x16F JUMPI PUSH1 0x24 DUP9 SWAP2 ADD SWAP2 JUMPDEST DUP4 DUP4 LT PUSH2 0x213F JUMPI POP POP POP POP PUSH2 0x1F33 DUP5 PUSH2 0x22CF JUMP JUMPDEST POP SWAP2 PUSH1 0x1 DUP1 PUSH1 0xA0 SHL SUB DUP1 PUSH1 0x9 DUP1 SWAP6 ADD SLOAD PUSH1 0x18 SHR AND CALLER EQ DUP1 ISZERO PUSH2 0x2132 JUMPI JUMPDEST PUSH2 0x1F59 SWAP1 PUSH2 0x2486 JUMP JUMPDEST DUP6 PUSH1 0x0 MSTORE PUSH1 0x5 DUP8 MSTORE PUSH1 0x40 PUSH1 0x0 KECCAK256 SWAP8 AND SWAP7 DUP8 PUSH1 0x0 MSTORE DUP7 MSTORE PUSH1 0x1 SWAP3 PUSH1 0x1 PUSH1 0xFF PUSH1 0x40 PUSH1 0x0 KECCAK256 SLOAD AND ISZERO ISZERO SUB PUSH2 0x20D7 JUMPI PUSH2 0x1F94 PUSH1 0xFF PUSH1 0x9 PUSH2 0xEC2 DUP10 PUSH2 0x22CF JUMP JUMPDEST PUSH2 0x1FA6 PUSH1 0x1 PUSH1 0xFF PUSH1 0x9 PUSH2 0x18AF DUP11 PUSH2 0x22CF JUMP JUMPDEST DUP6 PUSH1 0x0 MSTORE PUSH1 0x8 DUP8 MSTORE PUSH1 0x40 PUSH1 0x0 KECCAK256 DUP9 PUSH1 0x0 MSTORE DUP8 MSTORE PUSH1 0x40 PUSH1 0x0 KECCAK256 SLOAD PUSH1 0x5 PUSH2 0x1FCA DUP9 PUSH2 0x22CF JUMP JUMPDEST POP ADD SLOAD GT ISZERO PUSH2 0x206C JUMPI PUSH1 0x0 DUP5 JUMPDEST PUSH2 0x2006 JUMPI JUMPDEST DUP9 DUP9 DUP9 PUSH1 0x0 MSTORE PUSH1 0x8 DUP2 MSTORE PUSH1 0x40 PUSH1 0x0 KECCAK256 SWAP2 PUSH1 0x0 MSTORE MSTORE PUSH1 0x40 PUSH1 0x0 KECCAK256 PUSH2 0x2002 PUSH1 0x44 CALLDATALOAD DUP3 SLOAD PUSH2 0x25AB JUMP JUMPDEST SWAP1 SSTORE STOP JUMPDEST DUP3 MLOAD DUP2 LT ISZERO PUSH2 0x2067 JUMPI DUP7 PUSH1 0x0 MSTORE DUP2 DUP9 MSTORE PUSH1 0x40 PUSH1 0x0 KECCAK256 DUP10 PUSH1 0x0 MSTORE DUP9 MSTORE PUSH1 0x40 PUSH1 0x0 KECCAK256 DUP4 MLOAD DUP3 LT ISZERO PUSH2 0x2052 JUMPI DUP2 PUSH2 0x2048 DUP8 SWAP7 SWAP6 SWAP5 SWAP4 SWAP3 DUP12 DUP9 SWAP5 DUP12 SHL DUP8 ADD ADD MLOAD SWAP1 PUSH2 0x2576 JUMP JUMPDEST ADD SWAP1 SWAP2 SWAP3 SWAP4 PUSH2 0x1FD7 JUMP JUMPDEST DUP5 PUSH4 0x4E487B71 PUSH1 0xE0 SHL PUSH1 0x0 MSTORE PUSH1 0x32 PUSH1 0x4 MSTORE PUSH1 0x0 REVERT JUMPDEST PUSH2 0x1FDC JUMP JUMPDEST PUSH1 0x40 MLOAD PUSH3 0x461BCD PUSH1 0xE5 SHL DUP2 MSTORE PUSH1 0x4 DUP2 ADD DUP9 SWAP1 MSTORE PUSH1 0x3E PUSH1 0x24 DUP3 ADD MSTORE PUSH32 0x54686973207061727469636970616E7420686173207265616368656420746865 PUSH1 0x44 DUP3 ADD MSTORE PUSH32 0x206D6178696D756D206E756D626572206F66206672657175656E636965730000 PUSH1 0x64 DUP3 ADD MSTORE PUSH1 0x84 SWAP1 REVERT JUMPDEST PUSH1 0x40 MLOAD PUSH3 0x461BCD PUSH1 0xE5 SHL DUP2 MSTORE PUSH1 0x4 DUP2 ADD DUP9 SWAP1 MSTORE PUSH1 0x2D PUSH1 0x24 DUP3 ADD MSTORE PUSH32 0x5468652061646472657373206973206E6F742061207061727469636970616E74 PUSH1 0x44 DUP3 ADD MSTORE PUSH13 0x81BD9881D1A1A5CC819DBD85B PUSH1 0x9A SHL PUSH1 0x64 DUP3 ADD MSTORE PUSH1 0x84 SWAP1 REVERT JUMPDEST POP PUSH1 0x0 SLOAD DUP2 AND CALLER EQ PUSH2 0x1F50 JUMP JUMPDEST DUP3 CALLDATALOAD DUP2 MSTORE SWAP2 DUP2 ADD SWAP2 DUP9 SWAP2 ADD PUSH2 0x1F1F JUMP JUMPDEST PUSH1 0x24 CALLDATALOAD SWAP1 PUSH1 0x1 PUSH1 0x1 PUSH1 0xA0 SHL SUB DUP3 AND DUP3 SUB PUSH2 0x16F JUMPI JUMP JUMPDEST PUSH1 0x4 CALLDATALOAD SWAP1 PUSH1 0x1 PUSH1 0x1 PUSH1 0xA0 SHL SUB DUP3 AND DUP3 SUB PUSH2 0x16F JUMPI JUMP JUMPDEST PUSH2 0x2A0 DUP2 ADD SWAP1 DUP2 LT PUSH1 0x1 PUSH1 0x1 PUSH1 0x40 SHL SUB DUP3 GT OR PUSH2 0xBE5 JUMPI PUSH1 0x40 MSTORE JUMP JUMPDEST SWAP1 PUSH1 0x1F DUP1 NOT SWAP2 ADD AND DUP2 ADD SWAP1 DUP2 LT PUSH1 0x1 PUSH1 0x1 PUSH1 0x40 SHL SUB DUP3 GT OR PUSH2 0xBE5 JUMPI PUSH1 0x40 MSTORE JUMP JUMPDEST PUSH1 0x1 PUSH1 0x1 PUSH1 0x40 SHL SUB DUP2 GT PUSH2 0xBE5 JUMPI PUSH1 0x5 SHL PUSH1 0x20 ADD SWAP1 JUMP JUMPDEST PUSH1 0x40 SWAP1 PUSH1 0x3 NOT ADD SLT PUSH2 0x16F JUMPI PUSH1 0x4 CALLDATALOAD SWAP1 PUSH1 0x24 CALLDATALOAD SWAP1 JUMP JUMPDEST PUSH1 0x20 SWAP1 PUSH1 0x20 PUSH1 0x40 DUP2 DUP4 ADD SWAP3 DUP3 DUP2 MSTORE DUP6 MLOAD DUP1 SWAP5 MSTORE ADD SWAP4 ADD SWAP2 PUSH1 0x0 JUMPDEST DUP3 DUP2 LT PUSH2 0x220D JUMPI POP POP POP POP SWAP1 JUMP JUMPDEST DUP4 MLOAD DUP6 MSTORE SWAP4 DUP2 ADD SWAP4 SWAP3 DUP2 ADD SWAP3 PUSH1 0x1 ADD PUSH2 0x21FF JUMP JUMPDEST DUP2 PUSH1 0x1F DUP3 ADD SLT ISZERO PUSH2 0x16F JUMPI DUP1 CALLDATALOAD SWAP1 PUSH1 0x1 PUSH1 0x1 PUSH1 0x40 SHL SUB DUP3 GT PUSH2 0xBE5 JUMPI PUSH1 0x40 MLOAD SWAP3 PUSH2 0x2255 PUSH1 0x1F DUP5 ADD PUSH1 0x1F NOT AND PUSH1 0x20 ADD DUP6 PUSH2 0x2197 JUMP JUMPDEST DUP3 DUP5 MSTORE PUSH1 0x20 DUP4 DUP4 ADD ADD GT PUSH2 0x16F JUMPI DUP2 PUSH1 0x0 SWAP3 PUSH1 0x20 DUP1 SWAP4 ADD DUP4 DUP7 ADD CALLDATACOPY DUP4 ADD ADD MSTORE SWAP1 JUMP JUMPDEST PUSH1 0x60 SWAP1 PUSH1 0x3 NOT ADD SLT PUSH2 0x16F JUMPI PUSH1 0x4 CALLDATALOAD SWAP1 PUSH1 0x24 CALLDATALOAD PUSH1 0x1 PUSH1 0x1 PUSH1 0xA0 SHL SUB DUP2 AND DUP2 SUB PUSH2 0x16F JUMPI SWAP1 PUSH1 0x44 CALLDATALOAD SWAP1 JUMP JUMPDEST DUP1 SLOAD DUP3 LT ISZERO PUSH2 0x22B9 JUMPI PUSH1 0x0 MSTORE PUSH1 0x20 PUSH1 0x0 KECCAK256 ADD SWAP1 PUSH1 0x0 SWAP1 JUMP JUMPDEST PUSH4 0x4E487B71 PUSH1 0xE0 SHL PUSH1 0x0 MSTORE PUSH1 0x32 PUSH1 0x4 MSTORE PUSH1 0x24 PUSH1 0x0 REVERT JUMPDEST PUSH1 0x2 SLOAD DUP2 LT ISZERO PUSH2 0x22B9 JUMPI PUSH1 0x12 SWAP1 PUSH1 0x2 PUSH1 0x0 MSTORE MUL PUSH32 0x405787FA12A823E0F2B7631CC41B3BA8828B3321CA811111FA75CD3AA3BB5ACE ADD SWAP1 PUSH1 0x0 SWAP1 JUMP JUMPDEST SWAP1 PUSH1 0x1 DUP3 DUP2 SHR SWAP3 AND DUP1 ISZERO PUSH2 0x233A JUMPI JUMPDEST PUSH1 0x20 DUP4 LT EQ PUSH2 0x2324 JUMPI JUMP JUMPDEST PUSH4 0x4E487B71 PUSH1 0xE0 SHL PUSH1 0x0 MSTORE PUSH1 0x22 PUSH1 0x4 MSTORE PUSH1 0x24 PUSH1 0x0 REVERT JUMPDEST SWAP2 PUSH1 0x7F AND SWAP2 PUSH2 0x2319 JUMP JUMPDEST SWAP1 PUSH1 0x40 MLOAD SWAP2 DUP3 PUSH1 0x0 DUP3 SLOAD PUSH2 0x2357 DUP2 PUSH2 0x230A JUMP JUMPDEST SWAP1 DUP2 DUP5 MSTORE PUSH1 0x20 SWAP5 PUSH1 0x1 SWAP2 PUSH1 0x1 DUP2 AND SWAP1 DUP2 PUSH1 0x0 EQ PUSH2 0x23C7 JUMPI POP PUSH1 0x1 EQ PUSH2 0x2388 JUMPI JUMPDEST POP POP POP PUSH2 0x2386 SWAP3 POP SUB DUP4 PUSH2 0x2197 JUMP JUMPDEST JUMP JUMPDEST PUSH1 0x0 SWAP1 DUP2 MSTORE DUP6 DUP2 KECCAK256 SWAP6 SWAP4 POP SWAP2 SWAP1 JUMPDEST DUP2 DUP4 LT PUSH2 0x23AF JUMPI POP POP PUSH2 0x2386 SWAP4 POP DUP3 ADD ADD CODESIZE DUP1 DUP1 PUSH2 0x2377 JUMP JUMPDEST DUP6 SLOAD DUP9 DUP5 ADD DUP6 ADD MSTORE SWAP5 DUP6 ADD SWAP5 DUP8 SWAP5 POP SWAP2 DUP4 ADD SWAP2 PUSH2 0x2396 JUMP JUMPDEST SWAP3 POP POP POP PUSH2 0x2386 SWAP5 SWAP3 POP PUSH1 0xFF NOT AND DUP3 DUP5 ADD MSTORE ISZERO ISZERO PUSH1 0x5 SHL DUP3 ADD ADD CODESIZE DUP1 DUP1 PUSH2 0x2377 JUMP JUMPDEST SWAP2 SWAP1 DUP3 MLOAD SWAP3 DUP4 DUP3 MSTORE PUSH1 0x0 JUMPDEST DUP5 DUP2 LT PUSH2 0x2415 JUMPI POP POP DUP3 PUSH1 0x0 PUSH1 0x20 DUP1 SWAP5 SWAP6 DUP5 ADD ADD MSTORE PUSH1 0x1F DUP1 NOT SWAP2 ADD AND ADD ADD SWAP1 JUMP JUMPDEST PUSH1 0x20 DUP2 DUP4 ADD DUP2 ADD MLOAD DUP5 DUP4 ADD DUP3 ADD MSTORE ADD PUSH2 0x23F4 JUMP JUMPDEST SWAP1 DUP1 DUP3 MLOAD SWAP1 DUP2 DUP2 MSTORE PUSH1 0x20 DUP1 SWAP2 ADD SWAP3 PUSH1 0x20 DUP1 DUP5 PUSH1 0x5 SHL DUP4 ADD ADD SWAP6 ADD SWAP4 PUSH1 0x0 SWAP2 JUMPDEST DUP5 DUP4 LT PUSH2 0x2458 JUMPI POP POP POP POP POP POP SWAP1 JUMP JUMPDEST SWAP1 SWAP2 SWAP3 SWAP4 SWAP5 SWAP6 DUP5 DUP1 PUSH2 0x2476 PUSH1 0x1 SWAP4 PUSH1 0x1F NOT DUP7 DUP3 SUB ADD DUP8 MSTORE DUP11 MLOAD PUSH2 0x23E9 JUMP JUMPDEST SWAP9 ADD SWAP4 ADD SWAP4 ADD SWAP2 SWAP5 SWAP4 SWAP3 SWAP1 PUSH2 0x2448 JUMP JUMPDEST ISZERO PUSH2 0x248D JUMPI JUMP JUMPDEST PUSH1 0x40 MLOAD PUSH3 0x461BCD PUSH1 0xE5 SHL DUP2 MSTORE PUSH1 0x20 PUSH1 0x4 DUP3 ADD MSTORE PUSH1 0x24 DUP1 DUP3 ADD MSTORE PUSH32 0x596F7520617265206E6F74207468652063726561746F72206F66207468697320 PUSH1 0x44 DUP3 ADD MSTORE PUSH4 0x19DBD85B PUSH1 0xE2 SHL PUSH1 0x64 DUP3 ADD MSTORE PUSH1 0x84 SWAP1 REVERT JUMPDEST ISZERO PUSH2 0x24E5 JUMPI JUMP JUMPDEST PUSH1 0x40 MLOAD PUSH3 0x461BCD PUSH1 0xE5 SHL DUP2 MSTORE PUSH1 0x20 PUSH1 0x4 DUP3 ADD MSTORE PUSH1 0x1F PUSH1 0x24 DUP3 ADD MSTORE PUSH32 0x476F616C2068617320616C7265616479206265656E20636F6D706C6574656400 PUSH1 0x44 DUP3 ADD MSTORE PUSH1 0x64 SWAP1 REVERT JUMPDEST ISZERO PUSH2 0x2531 JUMPI JUMP JUMPDEST PUSH1 0x40 MLOAD PUSH3 0x461BCD PUSH1 0xE5 SHL DUP2 MSTORE PUSH1 0x20 PUSH1 0x4 DUP3 ADD MSTORE PUSH1 0x18 PUSH1 0x24 DUP3 ADD MSTORE PUSH32 0x476F616C20686173206E6F742073746172746564207965740000000000000000 PUSH1 0x44 DUP3 ADD MSTORE PUSH1 0x64 SWAP1 REVERT JUMPDEST DUP1 SLOAD PUSH1 0x1 PUSH1 0x40 SHL DUP2 LT ISZERO PUSH2 0xBE5 JUMPI PUSH2 0x2593 SWAP2 PUSH1 0x1 DUP3 ADD DUP2 SSTORE PUSH2 0x22A1 JUMP JUMPDEST DUP2 SWAP3 SWAP2 SLOAD SWAP1 PUSH1 0x3 SHL SWAP2 DUP3 SHL SWAP2 PUSH1 0x0 NOT SWAP1 SHL NOT AND OR SWAP1 SSTORE JUMP JUMPDEST SWAP2 SWAP1 DUP3 ADD DUP1 SWAP3 GT PUSH2 0xFDA JUMPI JUMP JUMPDEST ISZERO PUSH2 0x25BF JUMPI JUMP JUMPDEST PUSH1 0x40 MLOAD PUSH3 0x461BCD PUSH1 0xE5 SHL DUP2 MSTORE PUSH1 0x20 PUSH1 0x4 DUP3 ADD MSTORE PUSH1 0x12 PUSH1 0x24 DUP3 ADD MSTORE PUSH18 0x496E73756666696369656E742066756E6473 PUSH1 0x70 SHL PUSH1 0x44 DUP3 ADD MSTORE PUSH1 0x64 SWAP1 REVERT JUMPDEST ISZERO PUSH2 0x2600 JUMPI JUMP JUMPDEST PUSH1 0x40 MLOAD PUSH3 0x461BCD PUSH1 0xE5 SHL DUP2 MSTORE PUSH1 0x20 PUSH1 0x4 DUP3 ADD MSTORE PUSH1 0x18 PUSH1 0x24 DUP3 ADD MSTORE PUSH32 0x476F616C2068617320616C726561647920737461727465640000000000000000 PUSH1 0x44 DUP3 ADD MSTORE PUSH1 0x64 SWAP1 REVERT JUMPDEST SWAP1 DUP2 PUSH1 0x20 SWAP2 SUB SLT PUSH2 0x16F JUMPI MLOAD DUP1 ISZERO ISZERO DUP2 SUB PUSH2 0x16F JUMPI SWAP1 JUMP JUMPDEST ISZERO PUSH2 0x2664 JUMPI JUMP JUMPDEST PUSH1 0x40 MLOAD PUSH3 0x461BCD PUSH1 0xE5 SHL DUP2 MSTORE PUSH1 0x20 PUSH1 0x4 DUP3 ADD MSTORE PUSH1 0x26 PUSH1 0x24 DUP3 ADD MSTORE PUSH32 0x596F7520617265206E6F742061207061727469636970616E74206F6620746869 PUSH1 0x44 DUP3 ADD MSTORE PUSH6 0x1CC819DBD85B PUSH1 0xD2 SHL PUSH1 0x64 DUP3 ADD MSTORE PUSH1 0x84 SWAP1 REVERT JUMPDEST DUP2 DUP2 LT PUSH2 0x26C3 JUMPI POP POP JUMP JUMPDEST PUSH1 0x0 DUP2 SSTORE PUSH1 0x1 ADD PUSH2 0x26B8 JUMP JUMPDEST SWAP2 SWAP1 SWAP2 DUP3 MLOAD PUSH1 0x1 PUSH1 0x1 PUSH1 0x40 SHL SUB DUP2 GT PUSH2 0xBE5 JUMPI PUSH2 0x26EC DUP3 SLOAD PUSH2 0x230A JUMP JUMPDEST PUSH1 0x1F DUP2 GT PUSH2 0x2797 JUMPI JUMPDEST POP PUSH1 0x20 DUP1 PUSH1 0x1F DUP4 GT PUSH1 0x1 EQ PUSH2 0x2732 JUMPI POP DUP2 SWAP3 SWAP4 SWAP5 PUSH1 0x0 SWAP3 PUSH2 0x2727 JUMPI JUMPDEST POP POP DUP2 PUSH1 0x1 SHL SWAP2 PUSH1 0x0 NOT SWAP1 PUSH1 0x3 SHL SHR NOT AND OR SWAP1 SSTORE JUMP JUMPDEST ADD MLOAD SWAP1 POP CODESIZE DUP1 PUSH2 0x2711 JUMP JUMPDEST SWAP1 PUSH1 0x1F NOT DUP4 AND SWAP6 DUP5 PUSH1 0x0 MSTORE PUSH1 0x20 PUSH1 0x0 KECCAK256 SWAP3 PUSH1 0x0 SWAP1 JUMPDEST DUP9 DUP3 LT PUSH2 0x277F JUMPI POP POP DUP4 PUSH1 0x1 SWAP6 SWAP7 SWAP8 LT PUSH2 0x2766 JUMPI JUMPDEST POP POP POP DUP2 SHL ADD SWAP1 SSTORE JUMP JUMPDEST ADD MLOAD PUSH1 0x0 NOT PUSH1 0xF8 DUP5 PUSH1 0x3 SHL AND SHR NOT AND SWAP1 SSTORE CODESIZE DUP1 DUP1 PUSH2 0x275C JUMP JUMPDEST DUP1 PUSH1 0x1 DUP6 SWAP7 DUP3 SWAP5 SWAP7 DUP7 ADD MLOAD DUP2 SSTORE ADD SWAP6 ADD SWAP4 ADD SWAP1 PUSH2 0x2747 JUMP JUMPDEST PUSH2 0x27C4 SWAP1 DUP4 PUSH1 0x0 MSTORE PUSH1 0x20 PUSH1 0x0 KECCAK256 PUSH1 0x1F DUP5 ADD PUSH1 0x5 SHR DUP2 ADD SWAP2 PUSH1 0x20 DUP6 LT PUSH2 0x27CA JUMPI JUMPDEST PUSH1 0x1F ADD PUSH1 0x5 SHR ADD SWAP1 PUSH2 0x26B8 JUMP JUMPDEST CODESIZE PUSH2 0x26F5 JUMP JUMPDEST SWAP1 SWAP2 POP DUP2 SWAP1 PUSH2 0x27B7 JUMP JUMPDEST DUP2 ISZERO PUSH2 0x27DE JUMPI DIV SWAP1 JUMP JUMPDEST PUSH4 0x4E487B71 PUSH1 0xE0 SHL PUSH1 0x0 MSTORE PUSH1 0x12 PUSH1 0x4 MSTORE PUSH1 0x24 PUSH1 0x0 REVERT JUMPDEST SWAP2 SWAP1 DUP3 SUB SWAP2 DUP3 GT PUSH2 0xFDA JUMPI JUMP JUMPDEST SWAP1 DUP2 SLOAD PUSH2 0x280D DUP2 PUSH2 0x21B8 JUMP JUMPDEST SWAP3 PUSH2 0x281B PUSH1 0x40 MLOAD SWAP5 DUP6 PUSH2 0x2197 JUMP JUMPDEST DUP2 DUP5 MSTORE PUSH1 0x0 SWAP1 DUP2 MSTORE PUSH1 0x20 DUP1 DUP3 KECCAK256 DUP2 DUP7 ADD JUMPDEST DUP5 DUP5 LT PUSH2 0x283A JUMPI POP POP POP POP POP JUMP JUMPDEST PUSH1 0x1 DUP4 DUP2 SWAP3 PUSH2 0x2848 DUP6 PUSH2 0x2344 JUMP JUMPDEST DUP2 MSTORE ADD SWAP3 ADD SWAP4 ADD SWAP3 SWAP1 PUSH2 0x282C JUMP INVALID LOG2 PUSH5 0x6970667358 0x22 SLT KECCAK256 PUSH14 0x1D79AB17AC2131B7EE7ED01D87A7 BALANCE PUSH23 0x6FAEE9A28BF59DD5A55F59A6C4C18C64736F6C63430008 XOR STOP CALLER "
        },
        "methodIdentifiers": {
          "autenticateFrequency(uint256,address,uint256,uint256[])": "04091620",
          "bets(uint256,address)": "f644b3bb",
          "changeOwner(address)": "a6f9dae1",
          "completeGoal(uint256)": "8e03adf3",
          "createGoal(string,string,string,string,uint256,uint256,uint256,uint256,bool,uint256,uint256,string[],string,uint256,uint256)": "b501f4c8",
          "enterGoal(uint256,uint256)": "09c935c0",
          "getAutenticatedUri(uint256,address)": "47368cf1",
          "getGoal()": "b97a7d24",
          "getMyBets(uint256)": "76e20e53",
          "getMyEnteredGoals()": "d7a755ea",
          "getMyGoals()": "5911fc34",
          "getMyProgress(uint256)": "4fe64436",
          "getParticipants(uint256)": "c1e3bd3e",
          "getParticipantsUri(uint256,address)": "f78d7454",
          "goals(uint256)": "61449ca2",
          "isParticipant(uint256,address)": "758d9b89",
          "myEnteredGoals(address,uint256)": "8e9e380e",
          "myGoals(address,uint256)": "71e9abab",
          "owner()": "8da5cb5b",
          "participants(uint256,uint256)": "81fb1fb4",
          "participantsAutenticatedFreq(uint256,address)": "e594642c",
          "participantsFreq(uint256,address)": "47c0f954",
          "participantsURI(uint256,address,uint256)": "86d6b40f",
          "startGoal(uint256)": "27130b8d",
          "token()": "fc0c546a",
          "updateFrequency(uint256,string)": "57859a28",
          "validatedURI(uint256,address,uint256)": "57a0225d"
        }
      }
    }
  }
}